:10000000E024001051F90300C9080400CD080400E1
:10001000D1080400D5080400D9080400BAB5E7EFF8
:10002000000000000000000000000000DD080400E7
:10003000E108040000000000E5080400E9080400ED
:10004000ED08040049120000BD120000D9120000A2
:10005000EB12000055830000F1080400D3D9020020
:10006000F5080400F9080400FD0804000109040073
:1000700005090400090904000D0904001109040020
:100080001509040019090400CD2E0000DF2E000020
:100090008D0D03001D090400210904002509040039
:1000A00029090400AD560200BD7E00002D090400A0
:1000B000310904003509040039090400337F0100C7
:1000C0003D090400410904004509040049090400F0
:1000D0004D09040051090400B177000055090400DE
:1000E0005909040080B5DFF8102A0621DFF80C0A50
:1000F00031F056FFDFF8080ADFF8081AC0F80C1CC8
:10010000DFF8501AC0F88C1C01BD10B410F00703C2
:10011000DFF8444A22684FF6FF010A4052EA032200
:10012000DFF8381A0A43226010BC7047012210F031
:100130001F018A40DFF8901B03005BB25B0941F8A6
:1001400023207047012210F01F018A40DFF87C1B3A
:1001500003005BB25B0941F82320704710B4020032
:1001600052B2002A0AD5CA00DFF8F439040064B29A
:1001700014F00F04234403F8042C05E0CA00DFF850
:10018000503B040064B21A5510BC7047DFF8D40924
:100190000068C00604D41020DFF8CC19086003E022
:1001A0001020DFF85C1B0860704738B504002000A1
:1001B00080B2002822D1DFF8B4090088DFF8B01936
:1001C0000880DFF8B0090B210170002141700B217C
:1001D00081700021C1700B21017100214171D0E9B2
:1001E0000023DFF8201BC1E900230078DFF888191D
:1001F00008700AF0AEFB0AF0BBFB71E0DFF8701983
:10020000DFF86829138808881B1A9BB2082B67D36C
:1002100010880880DFF864090188492918D0DFF8C0
:1002200060190A88C2F3001292B2002A10D1028823
:100230004A2A0DD002884B2A0AD002884C2A07D0BD
:1002400000884D2804D0087810F00100002800D064
:1002500046E0DFF820596878002811D06878DFF888
:10026000A41A4978884207D12878DFF80C19087059
:100270000AF06FFB0AF07CFB6878401E68702FE084
:10028000E878002811D0E878DFF8781AC978884231
:1002900007D1A878DFF8E01808700AF05AFB0AF0D6
:1002A00067FBE878401EE8701AE06879002811D0F2
:1002B0006879DFF8501A4979884207D12879DFF840
:1002C000B81808700AF045FB0AF052FB6879401E26
:1002D000687105E0DFF82C0AD0E90023C5E90023A6
:1002E00031BD00002DE9F14FBDF80000002815D107
:1002F000DFF8140AB0F83E01002806D1DFF88008C4
:10030000018851F48071018006E0DFF874180A88D2
:100310004FF6FF6002400A80002038E3BDF800007D
:10032000022836D1DFF858683088C0F3002080B248
:1003300000282CD13088C0F3400080B2002812D0B1
:10034000DFF8C809DFF8C81908600AF03FFBDFF8DA
:100350001C080088DFF8BC19088031884FF6FD7052
:100360000140318011E0DFF804080188DFF8A409BA
:100370000088091A89B22F2907D34120DFF8FC171A
:100380000880308850F0020030800020FFE2012019
:10039000FDE2DFF8EC673088C0F3400080B200284F
:1003A00014D031884FF6FD7001403180DFF8BC0772
:1003B0000088DFF8601908800020DFF85C190870F9
:1003C0000020DFF8581908800020E0E2DFF84879C3
:1003D000387801281ED010D3032800F0B3804FD303
:1003E000052800F06581C0F0C180072800F0A682D2
:1003F000C0F05282082800F0BE82DFF82409DFF83E
:10040000101908600AF0E2FA0020DFF810190880DD
:10041000012038700AF0C4FA002831D03088C0F3C7
:10042000002080B2002814D1DFF8F00800880028EE
:1004300007D1DFF8F008DFF8D81808600AF0C6FA2C
:100440001BE0DFF8E408DFF8C81808600AF0BEFA1D
:1004500013E0DFF8C8080088002807D1DFF8CC08CF
:10046000DFF8AC1808600AF0B1FA06E0DFF8C0085F
:10047000DFF89C1808600AF0A9FA0220387085E2BB
:100480000AF07AFA00285CD0DFF8F40A0178491CF7
:1004900011F07F010170DFF8EC1A0078085C0500AC
:1004A0002800C0B21B2809D14120DFF8D0160880EF
:1004B000308850F002003080002068E22800C0B28E
:1004C0002B2803D02800C0B22D280DD1DFF8380822
:1004D000B0F83E01002807D0DFF840080188C94382
:1004E0000180012038702CE02800C0B20D2825D1F1
:1004F000DFF828080088002802D10320387020E0A7
:100500003088C0F3002080B2002802D10620387065
:1005100017E031884FF6FF6001403180DFF8680A4C
:10052000DFF8EC1708600AF051FADFF8400600889F
:10053000DFF8E01708800820387002E0DFF84C0A86
:10054000057023E2C6A0DFF8C81708600AF03EFA7B
:100550000020DFF8C8170880DFF8340A0021017096
:10056000002141700021817004203870DFF8FC0503
:100570000188DFF8A0070088091A89B20329C0F0B2
:1005800097800AF00DFA002800F09280DFF880874B
:10059000DFF8000AC8F800000AF018FA3088C0F343
:1005A000002080B2002809D0DFF8E409007830305C
:1005B000DFF8C41508700AF0CCF911E0DFF8D009B3
:1005C0000078002806D13020DFF8AC1508700AF05A
:1005D000C0F905E02A20DFF8A01508700AF0B9F983
:1005E0000FF28029C8F800900AF0F0F93088C0F3C3
:1005F000002080B2002809D0DFF89409407830301C
:10060000DFF8741508700AF0A4F911E0DFF880092A
:100610004078002806D13020DFF85C1508700AF019
:1006200098F905E02A20DFF8501508700AF091F9D2
:10063000C8F800900AF0CAF93088C0F3002080B2F0
:10064000002809D0DFF8480980783030DFF8281515
:1006500008700AF07EF911E0DFF83409807800288C
:1006600006D13020DFF8101508700AF072F905E0A5
:100670002A20DFF8041508700AF06BF9C8F800901A
:100680000AF0A4F900200400200080B2DFF88C16E4
:10069000098849424900891D884206DAC7A0C8F87E
:1006A00000000AF093F9641CEEE7052038706DE154
:1006B0000AF062F9002800F0EE80DFF8C408017843
:1006C000491C11F07F010170DFF8B8180078085C50
:1006D00005002800C0B21B2817D104203870DFF8AD
:1006E000B028DFF838160888105C002803D00020F6
:1006F00009885054CFE00888002803D00888401E9D
:100700000880C8E000203870C5E02800C0B22B285F
:1007100026D1DFF87C18DFF8040602888A5C092AF3
:1007200005DA02888A5C521C00880A5402E0002222
:1007300000880A543088C0F3002080B2002806D117
:10074000DFF85408DFF8C81508600AF03FF9DFF851
:100750001C040088DFF8BC150880042038709AE07B
:100760002800C0B22D2826D1DFF82428DFF8AC15E8
:100770000888105C002805D00888105C401E098895
:10078000505402E00920098850543088C0F30020FA
:1007900080B2002806D1DFF80008DFF87415086081
:1007A0000AF014F9DFF8C4030088DFF86815088040
:1007B000042038706FE02800C0B20D2868D1DFF83F
:1007C0005C85B8F80000022807DAB8F80000401C81
:1007D000A8F80000042038705DE03088C0F30020E5
:1007E00080B2002815D0DFF8A807017842781201FE
:1007F00052FA81F1807811EB0021DFF80C05A0F8A6
:100800003E11DFF88407DFF8081508600AF0DEF80B
:1008100032E0DFF8F404B0F83E010400DFF87007BE
:10082000017814F00F0291421FD141782200C2F3E7
:100830000312D2B2914218D18078210089B20912F4
:1008400011F00F0188420FD1DFF83C07DFF8C01428
:1008500008600AF0BBF8308850F4807030800BE0FC
:100860000A0000002D000000FFE7DFF88007DFF836
:10087000A01408600AF0AAF8DFF8F0020088DFF898
:10088000941408800020A8F800000820387002E0C6
:10089000DFF8F806057079E0DFF86C04B0F83E0187
:1008A0000400DFF8EC8614F00F00D0F1090088F89E
:1008B00002002000C0F30310D0F1090088F8000006
:1008C000200080B2001210F00F00D0F1090088F86B
:1008D0000100DFF83C94DFF81807C9F800000AF0BF
:1008E00075F8DFF81007C9F800000AF06FF8DFF8B4
:1008F00088A298F8000030308AF800000AF029F841
:100900000FF2981BC9F800B00AF060F898F80100DF
:1009100030308AF800000AF01CF8C9F800B00AF07C
:1009200055F898F8020030308AF800000AF011F803
:10093000C9F800B00AF04AF8072038700AF01CF82D
:10094000002817D0DFF838060178491C11F07F0124
:100950000170DFF830160078085C05002800C0B28E
:100960001B2803D02800C0B20D2800D19CE5DFF879
:100970001C0605700AE0DFF8F4010188DFF8940333
:100980000088091A89B22F29BFF48EAD0020BDE876
:10099000F28F01000020FF2903D2FF221100100076
:1009A00007E0B1F1807F04D37FF07F421100FF2286
:1009B0001000DFF854291160C0B270470800000031
:1009C00010B504002000C008FFF7E3FF10BD10B50C
:1009D00004002000FFF7F4FF10BD70B504000025EF
:1009E0002000FFF7EDFF0600012000F041F8300085
:1009F000C0B270BD0200D2B2002A11D10A00D2B238
:100A0000012A06D15FF08042137853F0100313706F
:100A10001BE05FF08042137813F0EF03137014E0D3
:100A20000200D2B2012A10D10A00D2B2012A06D1A4
:100A30005FF08042137853F00203137005E05FF01B
:100A40008042137813F0FD03137070470100C9B2A0
:100A5000012906D15FF080410A7852F001020A7044
:100A600005E05FF080410A7812F0FE020A707047DC
:100A700010B504002000C0B2012808D15FF080400A
:100A8000017851F00101017000F02FF805E05FF0EE
:100A90008040017811F0FE01017010BD2D000000B2
:100AA00001000800C0B2002805D15FF08040007846
:100AB00010F008000AE00800C0B2012805D15FF07C
:100AC0008040007810F0040000E0002070475FF0E4
:100AD0008040017811F0FB0101707047DFF8F008E9
:100AE000AA21017055210170704780B572B6FFF7D9
:100AF000F5FF62B601BD0000F8B50080C01C001013
:100B00009400001032CB008038B504000120FFF7BC
:100B1000C7FF002807D0DFF8BC08816851F4003116
:100B20008160FFF7D4FF4FF47A75200080B26843EC
:100B3000FFF74DFF0120FFF789FF01210120FFF79B
:100B400059FF200080B205FB00F52800FFF745FFA4
:100B500031BD00004ECB00800CED00E00000FA0536
:100B600018ED00E0B4800920B8800920D41C0010E2
:100B700074D0008008CD0080F8D00080C2CE008004
:100B8000C6CE008080B5FFF7B0FF01BD70B5040090
:100B900000F0A0F82000C0B2002868D1DFF83408C7
:100BA0000021016100214161002181610021C161B9
:100BB0000021DFF8242811600021DFF820281160CF
:100BC0000021DFF81C2811600021DFF818281160CF
:100BD0000021016200214162002181620021C16285
:100BE0000020DFF8041808600020DFF80018086013
:100BF000DFF8FC070088DFF8FC17088012F078FBAC
:100C0000C820DFF8F41708700020DFF8F01708702C
:100C1000002000F08FF80020FFF7C7FA0020FFF750
:100C200061FBDFF8DC67002332000021022015F0B1
:100C30005BFE0500280080B200282FD1DFF8C40732
:100C40000068C0072AD53088022807DB01203080E1
:100C5000002300223100022015F02DFE2A48B0F8B2
:100C6000E61102291ADB0121A0F8E61116E0DFF8EF
:100C7000980701F0A3F812F0F7FB1CF063FB1CF0DF
:100C8000A5FB06F013FBDFF884070088C0F34020C3
:100C900080B2002802D101201DF076FD2000C0B2F4
:100CA00016F06CFC2000C0B280B216F0C9FF13F041
:100CB000BCFE13F02DFD13F03DFF012000F03AF8CB
:100CC0000120FFF772FA70BD00E100E080E100E072
:100CD00000E400E0DFF8180703881900DFF8303778
:100CE0001B681A000B0000889BB28342F2D10902F4
:100CF000100080B211EB1021DFF8740A01807047F8
:100D0000BC80092000CD0080C0B8008050D3030013
:100D1000B8CD0080B4CE0080F9D00080B2CE008083
:100D200020F6030064D3030078D303008CD30300C0
:100D3000A0D30300F8B588B004000026200080B2DC
:100D4000002822D1DFF8CC76387810F00100002896
:100D500006D039884FF6FE700140398009F008FE50
:100D600039884FF67F7001403980DFF8AC060021EA
:100D700001800088DFF8A4160880DFF87406008878
:100D80002038DFF89C160880F8E0DFF89016088815
:100D9000ADF80000DFF88026BDF80000C0F30020A9
:100DA0001388C3F3002380B29BB2984221D0BDF8D0
:100DB0000000C0F3002080B2002806D1BDF800007A
:100DC00050F48070ADF8000006E0BDF800304FF63A
:100DD000FF600340ADF80030DFF814060088DFF84C
:100DE00040361880DFF82C06038853F00103038097
:100DF00009E0DFF8FC050388DFF8240600881B1AE9
:100E00009BB21F2B9ED21088C0F3013080B2002805
:100E100007D1BDF800304CF6FF700340ADF800304C
:100E200020E01088C0F30130BDF80030C3F3013377
:100E300080B29BB2984215D0DFF8E8051388514F75
:100E400090F800C007F80C3003785B1C13F07F03A8
:100E50000370108880B2000BBDF8003060F30D33D2
:100E6000ADF80030108880B2800B80B2002806D127
:100E7000BDF800008004800CADF800007BE0108815
:100E800080B2800B80B2BDF800309BB29B0B9BB24E
:100E9000984270D01088C0F3C02080B2002829D1B9
:100EA000DFF8840503785B1C13F07F03DFF87C75A3
:100EB0003F78BB425FD003785B1C13F07F03037065
:100EC000BDF8003013F47F43DFF8A07A0078385C77
:100ED0000343ADF80030BDF80000DFF8543518705A
:100EE000108880B2800BBDF8002060F38F32ADF81F
:100EF000002040E0DFF8300503785B1C13F07F032F
:100F0000DFF828753F78BB421CD033009BB21E2B04
:100F100018DA03785B1C13F07F030370DFF84C3A98
:100F20000078185C6B463700BFB23B449870761C63
:100F3000108880B2800BBDF8003060F38F33ADF8BD
:100F40000030D7E7002005002800320080B292B2BE
:100F500090420AD268462A0092B2104480782A0051
:100F600092B20A4490706D1CEEE7BDF8000066F383
:100F70000700ADF80000BDF80000088009B0F0BD22
:100F8000F5D0008078C2008038D70300F2D000800E
:100F900004CC008020060400B4D303003EB4DFF884
:100FA000141ADFF8142ADFF8143A002014680194A8
:100FB0001C680294019CDFF8085AAC4206D10298E2
:100FC000DFF8244CA04201D1012400E000242000DD
:100FD000C0B2002807D008680090009850F4700054
:100FE00000900098086037BC70470000C8D3030029
:100FF000DCD303002806040080B5FFF7CFFFDFF83D
:1010000028082521016001684906FCD50120DFF888
:10101000681708600920DFF8AC1908600120DFF8C4
:10102000A8190860DFF8A409AA2101605521016010
:10103000DFF8F80700684005FAD52320DFF890199B
:1010400008600120DFF88C190860DFF88C09AA21FC
:10105000016055210160DFF8580900684005FAD5A4
:1010600040F20110DFF80C17086040F20120DFF8B1
:10107000001908600120DFF8AC1708600220DFF8D3
:10108000FC1608604FF40240DFF8F01A08604FF4D5
:101090008070DFF8EC1A086045F23A00DFF8E41AD5
:1010A00008600020DFF8081D086001BD1FB5684614
:1010B000DFF8D41A102230F097FFDFF8C00A016879
:1010C00041F4400151F006010160016851F0020154
:1010D000016003220A21012001F010FC03221221E9
:1010E000012001F00BFC03221321012001F006FC7A
:1010F00003221A21012001F001FC0024200080B20B
:1011000004283EDA68460021220092B250F82220DC
:1011100011670021220092B250F822209160002134
:10112000220092B250F8222011610021220092B2D6
:1011300050F82220D1600021220092B250F82220E3
:101140009162210089B250F82110496851F00201E2
:10115000220092B250F822205160210089B250F84A
:101160002110496831F00201220092B250F8222089
:1011700051603B21220092B250F82200C160641CF1
:10118000BCE74FF6FF70DFF8641A0860DFF8601AFA
:101190000860DFF8601A0860DFF85C1A0860032056
:1011A000DFF8581A08600220DFF8541A086002209D
:1011B000DFF8501A08600220DFF84C1A086000209F
:1011C000DFF8481A08600020DFF8441A08600020A1
:1011D000DFF8401A08600020DFF83C1A08605FF072
:1011E000FF305FF040210860DFF8301A0860DFF858
:1011F000301A0860DFF82C1A086000210120FEF781
:10120000ADFF0120FEF792FFDFF81C0A016851F0E4
:1012100001010160DFF8140A016851F00101016069
:10122000DFF80C0A016851F001010160DFF8040ADF
:10123000016851F00101016000206D490880022021
:10124000DFF8741B08701FBD69480188491C0180C4
:101250005FF0FF305FF0402108606E49087810F0C1
:101260000100002823D10888C0F3001080B20028B4
:101270001DD0DFF8441B0878401E0870087800284D
:1012800015D10220087068480178491C11F07F01CF
:10129000664A127891420AD00178491C11F07F0108
:1012A0000170DFF8C8160078085C6149087058487A
:1012B00000684FF6FF718842F9D2704710B5DFF829
:1012C0005C4920682068800701D51BF035F920684B
:1012D00020682068206810BDDFF8440901680168B3
:1012E0000168016801680068704710B5DFF834498B
:1012F00020682068800701D50CF010FC2068206869
:101300002068206810BD0000040000402DE9FE4F59
:1013100004000D009DF8080000281ED02978200048
:1013200000F088F806006978200000F083F80700D4
:10133000A978200000F07EF880462979200000F08E
:1013400079F881466979200000F074F88246A9791D
:10135000200000F06FF8834609E02E786F7895F84A
:10136000028095F8049095F805A095F806B09DF8D0
:10137000040000280FD0404680B200904B469BB23C
:10138000524692B2594689B2200000F074F9002802
:1013900001D0B8F101084B469BB2524692B2594671
:1013A00089B2200000F09EF80100DFF8882C02FBD3
:1013B00001F243469BB24FF4616000FB03223B0005
:1013C0009BB23C2000FB032212FA86F0BDE8FE8FA0
:1013D00008000040E0C8008010CE008014CE0080DD
:1013E00094CD008098CD008018CE00809CCD0080E8
:1013F000D41C0010B0CE0080F3D00080FDD000805F
:101400008ACE0080B4800920E8CC0080BACF00806A
:1014100008400040C6CE0080CACE008040CA00808E
:1014200076D00080F4D00080F7D00080F6D0008025
:1014300000C0004002000800C0B20009C0B20A2388
:10144000C9B211F00F0103FB0011080080B2704710
:1014500010B40A0092B2042392FBF3F403FB1422AB
:10146000002A08D1080080B2642290FBF2F302FB4C
:101470001300002808D189B24FF4C87091FBF0F234
:1014800000FB1211002901D1012000E00020C0B2B0
:1014900010BC704770B504000D001600280080B223
:1014A00002280BD1310089B22000FFF7D1FF0028BC
:1014B00001D01D2000E01C2080B212E0280080B284
:1014C00004280BD0280080B2062807D0280080B25C
:1014D000092803D0280080B20B2801D11E2000E08B
:1014E0001F2070BD2DE9F84305000E001700984637
:1014F00000243000298880B288421AD1B5F80290C1
:101500004846390080B289B288420CD2320092B289
:10151000494689B22800FFF7BDFF14FA80F00400A5
:1015200019F10109ECE7414689B2A888091A0C199A
:1015300044E0B5F80290484680B20D280BDA2A88BC
:10154000494689B22800FFF7A5FF14FA80F004008D
:1015500019F10109EFE7A888241AB5F8009019F1EC
:1015600001094846310080B289B288420FD249460B
:1015700089B22800FFF76CFF002802D04FF4B77043
:1015800001E040F26D10041919F10109E9E75FF07B
:1015900001094846390080B289B288420CD2320033
:1015A00092B2494689B22800FFF774FF14FA80F01E
:1015B000040019F10109ECE714FA88F42000BDE8F1
:1015C000F2832DE9F04104000D001600280080B2DE
:1015D000032801DA0C35761E290089B2491C0D203A
:1015E0004143052091FBF0F010FA86F2300080B202
:1015F000042190FBF1F08218521C300080B264216B
:1016000090FBF1F1511A300080B24FF4C87290FB98
:10161000F2F04118072091FBF0F700FB1717380094
:1016200080B2401D072190FBF1F801FB180828004B
:1016300080B20D2801DB012200E00022280080B2E8
:101640000D2802DBB5F10C0100E02900921992B2DD
:1016500089B22000FFF71EFF1FFA88F818FA80F100
:10166000491E072280B2401A91FBF2F102FB0100F1
:1016700080B2BDE8F0812DE9F04105000E009046F2
:101680001F00069C404680B2032803DB404680B220
:101690000B2801DB00203CE0404680B2042805DB3B
:1016A000404680B20A2801DA012032E0404680B28A
:1016B000032814D1320092B203212800FFF781FFE2
:1016C0000100380080B2814207DB380080B28842D6
:1016D0001ED1200080B202281ADB012019E040460A
:1016E00080B20A2814D1320092B20A212800FFF7F2
:1016F00068FF0100380080B2884207DB380080B202
:10170000884205D1200080B2032801DA012000E0E0
:101710000020BDE8F081DFF8C4090078C0B23C28A1
:1017200021DADFF8BC090078C0B23C281BDADFF808
:10173000B4090078C0B2192815DADFF8AC090078CE
:10174000C0B207280FDADFF8A409017820290ADAE5
:101750000078002807D0DFF8980901780D2902DA0F
:101760000078002801D1002000E00120704700002F
:10177000C4CE008004C10F400CC10F40A8C10F406F
:1017800038B50024DFF86C59002028700020DFF8FD
:10179000681908800020DFF864190880DFF8600904
:1017A0000078C00601D501202870DFF858090178BB
:1017B00011F013010170017851F001010170FFF780
:1017C000AAFF002801D1641C01E0052004002000CC
:1017D00080B20328F3DB200080B205281DD0012051
:1017E00028700020DFF8F41808700020DFF8F018E7
:1017F00008700020DFF8EC1808700520DFF8E81802
:1018000008700920DFF8E41808700520DFF8E018F8
:1018100008701920DFF8F01808800020DFF8381C65
:10182000088031BD00C10F40A0C10F4088C00F40EB
:1018300030B4DFF8D808DFF8A41809780170DFF8B1
:10184000A01809784170DFF89C1809788170DFF8DA
:1018500098180978C170DFF8941809780171DFF8D9
:10186000901809784171DFF8A01809888171027811
:101870000A23DFF8281C04780A2594FBF5F412EB00
:10188000041492FBF3F203FB12430B7042780A2319
:1018900044780A2594FBF5F412EB041492FBF3F25E
:1018A00003FB12434B7082780A2384780A2594FB49
:1018B000F5F412EB041492FBF3F203FB12438B706A
:1018C000C2780A23C4780A2594FBF5F412EB0414B9
:1018D00092FBF3F203FB12435B1CCB7002790A23E9
:1018E00004790A2594FBF5F412EB041492FBF3F24D
:1018F00003FB12430B7142790A2344790A2594FBB6
:10190000F5F412EB041492FBF3F203FB12434B7158
:1019100082790A2380790A2490FBF4F012EB0010FC
:1019200092FBF3F203FB12038B71002030BC704773
:101930000178DFF8A82711704178DFF8A42711702B
:101940008178DFF8A0271170C178DFF89C2711702B
:101950000179DFF8982711704179DFF89427117029
:101960008179DFF8A427118070470000F8C100805A
:1019700008C10F40DFF8641709780170DFF86017BD
:1019800009784170DFF85C1709788170DFF8581723
:101990000978C170DFF8541709780171DFF8501722
:1019A00009784171DFF8601709888171704700007C
:1019B000A8C00F4088ED00E040EF00E044EF00E0F9
:1019C0002100111084C00F4080C00F408CC00F4018
:1019D000A4C00F40A0C00F40ACC00F4070B50400C1
:1019E0000A20217811F00F012278D2B21209D2B266
:1019F00000FB02113C2957DA617811F00F0162787F
:101A0000D2B21209D2B200FB02113C294CDAA17801
:101A100011F00F01A278D2B21209D2B200FB02116A
:101A2000192941DAE17811F00F01E278D2B21209F6
:101A3000D2B200FB0211092936DAE17811F00F0168
:101A4000E278D2B21209D2B200FB021100292BD0E7
:101A5000217911F00F012279D2B21209D2B200FB22
:101A60000211202920DA217911F00F012279D2B256
:101A70001209D2B200FB0211002915D0617911F0D0
:101A80000F016279D2B21209D2B200FB02110D2904
:101A90000ADA617911F00F016279D2B21209D2B279
:101AA00000FB021000280DD1002020700020607083
:101AB0000020A0700820E0700120207101206071DA
:101AC0000020A0710425280080B207281DD0DFF86F
:101AD000A86A280080B2205CC0B20009307030785B
:101AE0003030307008F035FF280080B2205C10F0F4
:101AF0000F00307030783030307008F02AFF2E2020
:101B0000307008F026FF6D1CDDE7DFF84469DFF870
:101B10004409E17800EB810050F8040C306008F0D3
:101B200055FFA4A0306008F051FF0226300000B23B
:101B3000002821D4DFF8405A300080B2205CC0B2C7
:101B40000009287028783030287008F002FF300033
:101B500080B2205C10F00F00287028783030287098
:101B600008F0F7FE300080B2002803D03A20287039
:101B700008F0EFFE761ED9E770BD0000C4C00F402C
:101B8000C8C10F4000C00F4040F9030038B5040041
:101B9000200080B2012804D01ED3032819D014D30A
:101BA0001AE0DFF8B808C178491EC17005002800A6
:101BB00000F042F80020DFF83C150870DFF840051F
:101BC000017851F01001017006E0DFF840050500D2
:101BD00002E0DFF838050500200080B2002802D0BE
:101BE0002800FFF7A5FE31BD11000011184000408C
:101BF0001880004018000940184009401440004077
:101C00001480004014000940144009403C4000404A
:101C10003C8000403C0009403C40094000800040BE
:101C2000000009400040094004400040048000409A
:101C30000400094004400940F8B52DED028B88B03E
:101C4000040004A830F013FA002602A8FFF792FE61
:101C500000236A460221042014F046FE01900198F8
:101C6000002840F09680DFF86078B7F8E601002899
:101C700001D0012200E000220023D2B2210004A8FA
:101C8000FFF744FB0190012006000098019988426B
:101C900080F07F8001990098091A00910098DFF880
:101CA0006818884275D20098DFF8601888426ED3B1
:101CB000B7F8E601002801D0012200E0002200234D
:101CC000D2B202A904A8FFF721FB05000198401B2E
:101CD00000EE100AB8EEC00ADDED000AF8EEE00AE8
:101CE000C0EE808ADFF81C140878C00604D5DFF83F
:101CF0008C080068009001E0002000900098C0036C
:101D0000C00B00EE900AF8EE600A0098800303D53D
:101D1000BFEE000A60EE800A30EEA88A0020009034
:101D2000B5EE408AF1EE10FA09D5009850F4003073
:101D30000090B0EE480AF0EEC00AB0EE608A9FED67
:101D40003B0AB4EE408AF1EE10FA03DB9FED380A4D
:101D5000B0EE408ABCEEC80A10EE100A002803D08C
:101D6000087850F010000870009F18EE100A30F04C
:101D70008DF90022DFF8083830F0ACF930F0DAFAEB
:101D8000C01900900098DFF8F417086001E0002007
:101D900006003000C0B2002805D00023022201A9AD
:101DA000042014F088FD08B0BDEC028BF1BD0000EA
:101DB00008ED00E00D0A0000FCD0008038B50400FA
:101DC000DFF89456287810F01F0F04D02888FFF70A
:101DD000DDFE00202880FFF72BFD2000DFF8BC1679
:101DE000082230F0F1F8DFF8E006B0F8E60100284C
:101DF00008D02878000605D400F01CF8022801D18C
:101E000002202880DFF8EC020078002806D0DFF8F6
:101E10007407C16951F00041C16105E0DFF8640752
:101E2000C16921F00041C16131BD000001000048DD
:101E300000000048F8B5002400250426DFF8B87239
:101E40003888002809D0022800F0B580032800F067
:101E5000C480042800F0D080E9E002203880DFF858
:101E60002817088800283AD1A8484279042A02DBBA
:101E700042790A2A6DDB42790A2A13D10279192A9A
:101E800067DBC278062A05D18078042861DB01204F
:101E900005005EE0C27819320079824259DA0120E9
:101EA000050056E04279032A16D10279192A02DA8E
:101EB000012005004DE0C278062A05D1807804286B
:101EC00047DA0120050044E00279C07819308242E7
:101ED0003FDA012005003CE00120050039E08B4895
:101EE0004279032A35DB42790B2A32DA4279032A16
:101EF00013D10279192A2CDBC278062A05D1807801
:101F0000042826DB0120040023E0C278193200797E
:101F100082421EDA012004001BE042790A2A16D10F
:101F20000279192A02DA0120040012E0C278062A96
:101F300005D1807803280CDA0120040009E0027939
:101F4000C0781930824204DA0120040001E0012047
:101F5000040020002A00C0B2D2B290422AD00888E1
:101F6000022827DA2800C0B200280FD0674A9078EC
:101F700000280BD050783A2808DA9078401E9070EC
:101F80000120088002200600032038802000C0B213
:101F900000280FD05D488278172A0BDA42783A2A57
:101FA00008DA8278521C8270002008800220060025
:101FB000032038803BE05149DFF8D025138808889A
:101FC0001B1A9BB240F22770834203D30020388053
:101FD000108808800020060029E0DFF8B405018899
:101FE000C1F3800189B2002905D1018851F00401B3
:101FF0000180042038801AE00123DFF88C250021BD
:10200000022014F071FC0600300080B204280ED0CB
:10201000DFF87C150A884FF6FB7002400A80022028
:102020003880300080B2002801D001200600300046
:1020300080B2F2BD805101002DE9FC4F0200042066
:10204000110089B2002906D10021DFF84835198036
:10205000002108003FE0DFF83C35198801292AD02B
:10206000DFF834150C788DF80040DFF8304525781E
:10207000DFF82C653778DFF82CE59EF80080DFF874
:10208000289599F800A0DFF824B5CDF804B0DDF864
:1020900004C09CF800B08DF800B0DFF814C5DCF87F
:1020A00000C0DFF814B7ABF800C0B3F800C01CF1F3
:1020B000010CA3F800C0DFF8F8140C68DFF8F8167C
:1020C0000988641AA4B241F641718C4203D30021FD
:1020D000198000210800C0B2BDE8F68F2040024000
:1020E0002440024028400240304002402C40024040
:1020F00038400240D81C00108CCE008090CE00806A
:102100005C400240084002403C400240F0CC00806D
:1021100080B5DFF8A806016851F40061016041F262
:102120001000DFF89C1608600120DFF898160860A0
:102130000020DFF8941608601120DFF89016086080
:102140001120DFF88C1608601120DFF8881608606F
:102150001120DFF8841608601120DFF8801608606F
:102160001120DFF87C1608601120DFF8781608606F
:102170001120DFF8741608601120DFF8701608606F
:102180001120DFF86C1608601120DFF8681608606F
:102190001120DFF8641608601120DFF8601608606F
:1021A0001120DFF85C1608601120DFF8581608606F
:1021B0001120DFF8541608601120DFF8501608606F
:1021C0001120DFF84C1608601120DFF8481608606F
:1021D0001120DFF8441608601120DFF8401608606F
:1021E0001120DFF83C1608601120DFF8381608606F
:1021F0001120DFF8341608601120DFF8301608606F
:102200001120DFF82C1608601120DFF8281608606E
:102210001120DFF8241608601120DFF8201608606E
:102220001120DFF81C1608601120DFF8181608606E
:102230001120DFF8141608601120DFF8101608606E
:102240001120DFF80C1608601120DFF8081608606E
:102250001120DFF8041608601120DFF8001608606E
:102260001120DFF8FC1508601120DFF8F815086070
:102270001120DFF8F41508601120DFF8F015086070
:102280001120DFF8EC1508601120DFF8E815086070
:102290001020DFF8E41508600020DFF8E015086082
:1022A0000120DFF8DC1508600020DFF8D815086091
:1022B0000020DFF8D41508600120DFF8D015086091
:1022C0000020DFF8CC1508600020DFF8C815086092
:1022D0000020DFF8C41508608120DFF8C015086011
:1022E0000220DFF8BC1508600220DFF8B81508608E
:1022F0000420DFF8B41508600020DFF8B01508608E
:102300000420DFF8AC1508600020DFF8A81508608D
:102310008020DFF8A41508600020DFF8A015086011
:102320000020DFF89C1508600720DFF8981508608A
:102330000020DFF8941508600520DFF8901508608C
:102340000020DFF88C1508600121002000F00CF857
:10235000DFF88015086001BD02008A4203D2002325
:102360001380921CF9E770472DE9F84F04000D0027
:1023700000262000C0B2002804D15FF00047DFF83B
:1023800058850BE02000C0B2012804D15FF010474F
:10239000DFF8488502E07FF0010057E02800C0B276
:1023A00000281ED0002002003B00434517D21A70BF
:1023B0003000C0B2002808D11000C0B2FF2801D000
:1023C000521C0AE00120060007E01000C0B20028FD
:1023D00001D0521E01E0002006005B1CE5E7002052
:1023E00006005FF00009CB46BA46C24524D29AF8EF
:1023F0000000814658464946C0B2C9B2884201D061
:10240000504623E03000C0B2002809D15846C0B27F
:10241000FF2802D01BF1010B0BE00120060008E0B1
:102420005846C0B2002802D0BBF1010B01E00020E9
:1024300006001AF1010AD8E72000C0B2012803D033
:1024400041463800FFF788FF5FF0FF30BDE8F28FAC
:10245000B8CD008058D0030088CE0080F8CC008032
:1024600001000800C0B2002805D002280BD006D316
:1024700003280CD00FE0DFF8680400680CE0DFF8F8
:102480006404006808E0DFF86004006804E0DFF836
:102490005C04006800E0FEE770470000E8CC0080C4
:1024A0000A00D2B2012A05D1DFF8102313680343D2
:1024B000136008E00A00D2B2002A04D1DFF8FC223F
:1024C0001368834313607047C0B800800F20DFF8A3
:1024D000201408600020DFF81C1408600020DFF8DA
:1024E00018140860704710B504000020DFF80014CD
:1024F00008606178207800F00BF8A178207800F06F
:1025000021F810BD000000008042F10081F40300BA
:1025100010B40A00D2B2012A07D1DFF8D823136819
:1025200001248440234313600AE00A00D2B2002A47
:1025300006D1DFF8C023136801248440A34313604D
:1025400010BC704710B40A00D2B2012A07D1DFF8DC
:10255000A823136801248440234313600AE00A007F
:10256000D2B2002A06D1DFF89023136801248440F8
:10257000A343136010BC7047F8D000804040024075
:102580000000E03FE0C800808ACE0080D41C00102C
:10259000C6CE008078D00080709C00908E63019041
:1025A000C00701903EF800907EE00090801F0190EF
:1025B0000840004010B5040001215FF40030FFF72F
:1025C0006FFF0720606740F277702067A06510BD3D
:1025D00010B4032980F09A80002906D153698361E1
:1025E00093694362D369036312E0012906D15369F9
:1025F000C36193698362D369436309E0022906D109
:10260000536903629369C362D369836300E07DE029
:102610001368012B0AD1032905D20124CB005B1CCE
:1026200014FA03F300E00023436009E0032905D214
:102630000124CB005B1C14FA03F300E00023836049
:102640005368012B0AD1032905D20124CB009B1C1E
:1026500014FA03F300E00023436009E0032905D2E4
:102660000124CB009B1C14FA03F300E000238360D9
:102670009368012B28D1032905D20124CB00DB1C50
:1026800014FA03F300E000234360032907D240F269
:10269000FF340A2303FB01F314FA03F300E00023E1
:1026A000C46B34EA0303C363032908D2D468A405C6
:1026B000A40D0A2303FB01F314FA03F300E0002343
:1026C000C46B2343C36309E0032905D20124CB0073
:1026D000DB1C14FA03F300E0002383601369012B71
:1026E0000AD1032905D20124CB001B1D14FA03F3E0
:1026F00000E00023836009E0032905D20124CB0018
:102700001B1D14FA03F300E00023436010BC704764
:10271000002904D193694362D36903630CE0012962
:1027200004D193698362D369436305E0022903D12D
:102730009369C362D3698363704770B4002400292E
:1027400001D0012400E00024002A02D04FF480755B
:1027500000E00025002B02D05FF4803600E0002668
:102760002C433443446070BC704770B4002400298B
:1027700001D0012400E00024002A02D04FF480752B
:1027800000E00025002B02D05FF4803600E0002638
:102790002C433443846070BC704710B402000023A3
:1027A0001000C0B2400150FA81F4DFF8440710EB8A
:1027B000840010BC704700007AD00080C4C00F4075
:1027C000DCC10F4000C0092008C0092080C10240C0
:1027D00084C1024088C102408CC1024090C10240C5
:1027E00094C1024098C102409CC10240A0C1024075
:1027F000A4C10240A8C10240ACC10240B0C1024025
:10280000B4C10240B8C10240BCC1024000C2024093
:1028100004C2024008C202400CC2024010C2024080
:1028200014C2024018C202401CC2024020C2024030
:1028300024C2024028C202402CC2024030C20240E0
:1028400034C2024038C202403CC2024040C2024090
:1028500044C2024048C202404CC2024060C2024030
:1028600064C2024068C202406CC2024078C20240A8
:102870007CC2024038C1024040C00240F4C0024065
:1028800000C2092004C2092008C209200CC2092084
:1028900010C2092014C2092018C2092020C2092030
:1028A00024C2092028C209202CC2092030C20920D4
:1028B00034C2092038C2092040C2092044C209207C
:1028C00048C209204CC2092050C2092054C2092024
:1028D00058C20920D01C0010FFFF0F80FFFF079097
:1028E000041C0010081C00100C1C0010101C001010
:1028F00040C10F4048C10F404CC10F40F8B5040023
:102900000D00160000272900C9B22000C0B2FFF751
:1029100044FF0168C908C900016002683100C9B2FA
:102920000A430260F1BD00002DE9F0470220FDF7E7
:10293000D9FC002800F0C882DFF8B885B8F800009C
:10294000C0F3402080B200281CD0DFF8AC05DFF8CF
:10295000AC15086008F03AF8DFF8A405018851F0DA
:1029600020010180B8F800104FF6FF500140A8F890
:1029700000100020DFF88C1508700020DFF88815A3
:102980000880A1E2DFF87C75387819281FD03878E4
:102990000A280CDBDFF874054088002807D0DFF830
:1029A0007005DFF85815086008F010F832E2387842
:1029B00012280CDBDFF85C050088002807D0DFF860
:1029C0005005DFF83815086008F000F822E2387882
:1029D000012824D002283DD0032800F08780052854
:1029E00000F0A6800A2800F0B7800F2800F0D08001
:1029F000112800F03481142800F07681152800F0A9
:102A00001582162800F03082192800F05282C6A0E4
:102A1000DFF8E814086007F0D9FF0120387007F0EC
:102A2000BFFF002816D0DFF8E0040088002807D197
:102A3000DFF8E404DFF8C414086007F0C7FF06E01D
:102A4000DFF8D804DFF8B414086007F0BFFF0220F5
:102A5000387037E207F090FF002846D0DFF8C00456
:102A60000178491C11F07F010170DFF8B81400787B
:102A7000085C04002000C0B21B2817D10020DFF83A
:102A8000A8140870B8F8000050F40070A8F800000E
:102A9000DFF86C140A884FF6DF7002400A80DFF816
:102AA0008C040078DFF8601408800DE22000C0B2CA
:102AB0002B2803D02000C0B22D2807D1DFF848040E
:102AC0000188C9430180012038700EE02000C0B2A7
:102AD0000D2807D1DFF8300400880028CED003206D
:102AE000387002E0DFF848040470EBE1DFF8080416
:102AF000DFF80814086007F069FFDFF81014002001
:102B000008730120DFF800241080DFF82804C28A4F
:102B1000DFF824341A800022C28200200880DFF807
:102B20001C040088DFF81814088005203870C9E1FB
:102B3000DFF808040188DFF808040088091A89B260
:102B40000329C0F0BF810A20DFF8F813087007F0EE
:102B500000FF0A203870B5E107F022FF002817D0E7
:102B6000DFF89883DFF8E003C8F8000007F02EFFD5
:102B7000DFF8D803DFF89013098800EB810050F8E4
:102B8000040CC8F8000007F021FF0F20387099E10D
:102B900007F0F2FE002861D0DFF884130878401CAB
:102BA00010F07F000870DFF89C03DFF878230978C5
:102BB000515C017001781B2919D10020DFF86813DE
:102BC0000870B8F8000050F40070A8F80000DFF8B2
:102BD00068030088DFF85C13C882DFF824130A88D2
:102BE0004FF6DF7002400A800DF042FB6CE1017885
:102BF0002B290CD1DFF810030188491C01800188C2
:102C0000032901DB012101800A2038705AE1017893
:102C10002D290BD1BC490888401E0880088800284F
:102C200001D1022008800A2038704BE101780D297B
:102C300014D10021B74A1180B3490A88032A03DA64
:102C40000988B24A117303E00988891EAF4A1173DB
:102C5000112139700A21017007F07BFE32E107F083
:102C60009FFE002840D0A8480088032839DADFF802
:102C70008C92B748C9F8000007F0A8FEDFF8B4A2AC
:102C8000DFF8C0829AF80F00303088F8000098F81A
:102C9000000088F8000007F05CFEAE48C9F80000AC
:102CA00007F094FEBAF810005B2190FBF1F948465A
:102CB00080B20A2190FBF1F0060016F1300088F88E
:102CC000000007F046FE1FFA89F90A2099FBF0F18F
:102CD00000FB11994D4615F1300088F8000007F00F
:102CE00038FE14203870EDE007F046FE002800F0B2
:102CF00090808B480178491C11F07F010170914947
:102D0000884A0078105C087008781B280ED10A20C9
:102D1000087007F01EFE7F48018851F48041018051
:102D20000A20387075E000BF0A00000008782B28E0
:102D300024D11120387074480088032869DA7D484E
:102D40008188C1F3C02189B200290BD082486B4928
:102D5000086007F03BFE7948008879490880152013
:102D6000387056E0018A5B310182018A41F2565285
:102D700091424EDB41F2555101824AE008782D28FC
:102D800023D11120387060480088032841DA69484F
:102D90008188C1F3C02189B200290BD06E48574900
:102DA000086007F013FE6548008865490880152013
:102DB00038702EE0018A5B390182B0F9101009B237
:102DC000002926D50021018223E008780D2820D192
:102DD000112038704C48008803281ADA5549888831
:102DE000C0F3C02080B200280BD05B484349086084
:102DF00007F0ECFD514800885149088015203870D3
:102E000007E0C87B401EC873C87B002801D106209C
:102E1000C87357E03F48018851F48041018047481A
:102E2000008847490880192038704BE007F0B8FD4A
:102E3000002818D007F0A0FD00280AD038480178F3
:102E4000491C11F07F01017036490078085C3D494A
:102E500008703A4801883A480088091A89B2172947
:102E600001D3162038702DE007F09AFD002820D0FD
:102E7000DFF8D0800A2088F8000007F06AFDDFF84C
:102E80007C903148C9F8000007F0A0FD2F481E498A
:102E9000098800EB810050F8040CC9F8000007F025
:102EA00095FD0A2088F8000007F053FD11203870C6
:102EB00008E02248018822480088091A89B220299E
:102EC000BFF47BAE07F054FDBDE8F08780B50FF08E
:102ED00013F82248016851F00101016001BD80B57D
:102EE0000FF036F81D48016851F00201016001BD84
:102EF00000C00240C6CE0080F0D30300B8CD0080F1
:102F0000DACE0080FAD00080B2CE008024CC0080DF
:102F100018CF030000CF008030F6030040F6030016
:102F2000F5D0008078C20080F9D000801DD10080EB
:102F3000F2D00080C0B80080B8CE0080D41C001051
:102F4000B4CE0080F8D0008030060400141C0010BD
:102F50003806040040060400D8CF030040C10F40EB
:102F600080B5FFF7B3FA00208DF8000001208DF83E
:102F7000010000208DF802006846FFF7B4FA012036
:102F80008DF800006846FFF7AEFA01BD2DE9F34F5A
:102F900081B02DED088B86B00020ADF80E00DFF873
:102FA000840D0088C0F3400080B2002817D0DFF8FD
:102FB000741D0A884FF6FD7002400A800888C0F32D
:102FC000002080B2002804D10D20DFF8541D0870C5
:102FD00003E00F20DFF8481D087001F00FBCDFF898
:102FE000408D98F80000002800F0A280012800F031
:102FF000A380022800F0C780032800F0AA810428DB
:1030000000F0AB81052800F0D781062800F0EA81A6
:10301000072800F0B083082800F0B283092800F0E8
:10302000EB850A2800F0D5870B2801F075800E2863
:1030300011D00F281AD0DFF8C00CDFF8D41C0860BC
:1030400007F0C4FCDFF8B40C0088DFF8B41C08807B
:103050000E2088F80000DFF8A40C0188DFF8A00C2F
:103060000088091A89B22E29C1F0C683DFF8A06C46
:10307000DFF8940C306007F0A9FCDFF8909C0A2080
:1030800089F8000007F065FCDFF8787C00203880C4
:10309000002088F80000BDF84000012837D1BDF8B5
:1030A0004000012818D10F9800783880DFF8641CA0
:1030B0003A880C20424301EB0200808801280BD1A2
:1030C000DFF8A80D0D21DFF8A82D0378D154017881
:1030D000491C11F07F0101700D2089F8000007F0F4
:1030E00038FCDFF8301C3A880C20424388583060A6
:1030F00007F06CFCDFF8740D0D21DFF8742D0378F8
:10310000D1540178491C11F07F0101700BE0BDF82A
:103110004000022807DBDFF8A00D002101800F9995
:103120000088085C38803888082845DA01F066BBDA
:1031300007F036FC00281DD00D20DFF8D01B0870EA
:1031400007F007FCDFF8C86BDFF8700D006830602F
:1031500007F03CFCDFF8BC1BDFF8A80B02880C2052
:1031600042438858306007F031FC0020DFF8501DE2
:10317000087003E00120DFF8481D0870022088F87D
:10318000000001F039BB07F0F7FB002800F0CA800F
:103190000720ADF80E00DFF82C0D0178491C11F066
:1031A0007F010170DFF8641BDFF8C42C0078105C2D
:1031B000087008781B280BD14120DFF80C1D08800F
:1031C000DFF8600B018851F00201018001F016BBAD
:1031D00008782D282BD1BDF84000022817DBDFF836
:1031E000D81C0888401C08800888BDF84020904200
:1031F00001D300200880DFF80C0B0F9A0988515C7E
:103200000180BDF80E10008881420CD2D4E7DFF8AF
:10321000F40A0188491C01800188BDF80E20914202
:1032200001D300210180002088F80000ABE7087876
:103230002B282FD1BDF84000022819DBDFF8781CBD
:103240000A884FF6FF7083180B8092B2002A03D1D0
:10325000BDF8402080180880DFF8A80A0F9A098876
:10326000515C0180BDF80E10008881420ED2A3E7A8
:10327000DFF8900A02884FF6FF718B18038092B234
:10328000002A03D1BDF80E2089180180002088F89B
:10329000000078E708780D283FD1DFF8302C0020B7
:1032A00010800C23DFF85C6ADFF8687A30885843B6
:1032B0003844D0F808C0B2F800E0382000FB0EFE19
:1032C0000CEB0E0090F82800DFF8B0CD9CF800C0A1
:1032D00010EA0C0F18D11088368803FB06F33B4424
:1032E0009B885B1E98420BD14120DFF8DC1B0880D5
:1032F000DFF8300A018851F00201018001F07EBA46
:103300001088401C1080CCE70A20087007F021FBD1
:10331000042088F8000001F071BA0878DFF8601D19
:10332000087030E7DFF8980B0078012802D1002000
:1033300088F80000DFF8DC0DDFF8801B0A680368FE
:103340009A4204D009680160002088F8000001F06A
:1033500053BA07F025FB002825D00D20DFF8AC1963
:10336000087007F0F6FADFF8A869DFF8500B00687C
:10337000306007F02BFBDFF89C19DFF88809028822
:103380000C20424301EB02008168DFF8400B028809
:10339000382042438858306007F018FB0020DFF8DF
:1033A000201B087003E00120DFF8141B08700520C3
:1033B00088F8000001F020BA07F0DEFA002800F0DB
:1033C000C381DFF8000B0178491C11F07F01017007
:1033D000DFF83869DFF8981A0078085C30703078C8
:1033E0001B281DD1BDF84000012803D0BDF80E00F8
:1033F000012800D1E0E6DFF81009DFF814190860B1
:1034000007F0E4FA0A20DFF80419087007F0A1FABF
:10341000002088F800000020DFF8B01A088093E14F
:1034200030782D2828D1DFF8A40A0188491C0180B2
:103430000C22DFF8D018DFF8DC3806880F885743F5
:103440001F44BF88BE4201D300260680098802FBC4
:1034500001F203EB0201896802883820424301EB44
:10346000020090F82800DFF8141C09780842DAD02E
:10347000032088F800009FE730782B282FD1DFF851
:103480004C1A08884FF6FF7213180B8080B2002880
:103490000BD1DFF88038DFF86C0806880C20464333
:1034A00003EB0600808812180A80DFF86828DFF82E
:1034B000540803880C20434302EB03008268098808
:1034C0003820414302EB010090F82800DFF8AC1BE4
:1034D00009780842D3D0032088F800006CE73078E0
:1034E0000D2840F02C813820DFF8E0190C22DFF89D
:1034F0001438DFF82078B3F800C002FB0CFCBC44A1
:10350000DCF808C0B1F800E000FB0EFEF4449CF8C3
:1035100030C01CF0070C6446B3F800C002FB0CFC82
:10352000BC44DCF808C0B1F800E000FB0EFEF44437
:10353000BCF830C0CCF3802C1FFA8CFCBCF1000F1F
:1035400005D0A4461FFA8CFCBCF1000F79D1A4462B
:103550001FFA8CFCBCF1010F12D11B8802FB03F295
:103560003A449268098800FB01F01044406890F9E1
:1035700000002EF0F1FEDFF8342CC2E90001D6E0A5
:10358000A4461FFA8CFCBCF1020F12D11B8802FB6F
:1035900003F23A449268098800FB01F01044406845
:1035A000B0F900002EF0D8FEDFF8002CC2E90001CF
:1035B000BDE0A4461FFA8CFCBCF1030F11D11B889F
:1035C00002FB03F23A449268098800FB01F01044C0
:1035D000406800682EF05AFDDFF8D02BC2E90001E8
:1035E000A5E0A4461FFA8CFCBCF1040F11D11B8886
:1035F00002FB03F23A449268098800FB01F0104490
:10360000406800682EF0A8FEDFF8A02BC2E9000198
:103610008DE0A4461FFA8CFCBCF1000F40F08780BF
:103620001B8802FB03F23A449268098800FB01F010
:103630001044406890ED000BDFF8700B80ED000B3C
:1036400075E0A4461FFA8CFCBCF1010F11D11B8858
:1036500002FB03F23A449268098800FB01F010442F
:10366000406800782EF08AFEDFF8402BC2E90001A6
:103670005DE0A4461FFA8CFCBCF1020F11D11B883F
:1036800002FB03F23A449268098800FB01F01044FF
:10369000406800882EF072FEDFF8102BC2E90001AE
:1036A00045E0A4461FFA8CFCBCF1030F11D11B8826
:1036B00002FB03F23A449268098800FB01F01044CF
:1036C000406800682EF0E2FCDFF8E02AC2E9000161
:1036D0002DE0A4461FFA8CFCBCF1040F11D11B880D
:1036E00002FB03F23A449268098800FB01F010449F
:1036F000406800682EF042FEDFF8B02AC2E90001FF
:1037000015E0A4461FFA8CFCBCF1000F0FD11B88FA
:1037100002FB03F23A449268098800FB01F010446E
:10372000406890ED000BDFF8840A80ED000B0A2062
:10373000307007F00EF9082088F800003CE6307879
:10374000DFF83C19087037E6DFF8740700780128C5
:1037500002D1032088F80000DFF8B809DFF85C1711
:103760000A6803689A4204D009680160032088F857
:10377000000001F041B807F013F9002800F0BE8402
:103780000D20DFF88815087007F0E3F8DFF82C0744
:103790000068DFF87C15086007F018F9DFF8746539
:1037A000DFF8600501880C20414306EB01008168C9
:1037B000DFF8180702883820424301EB020090F836
:1037C000307017F00707DFF83C0501880C204143F3
:1037D00006EB01008168DFF8F406028838204243D6
:1037E00001EB0200008EC0F3802080B2002803D0DD
:1037F000380080B200287CD1380080B2012813D173
:10380000DFF8000501880C20414306EB01008168C8
:10381000DFF8B80602883820424301EB0200406816
:1038200090F900008346DCE0380080B2022813D112
:10383000DFF8D00401880C20414306EB01008168C9
:10384000DFF8880602883820424301EB0200406816
:10385000B0F900008346C4E0380080B2032815D1D7
:10386000DFF8A00401880C20414306EB01008168C9
:10387000DFF8580602883820424301EB0200406816
:1038800000682EF003FC41EC180BAAE0380080B26F
:10389000042812D1DFF86C0401880C20414306EBA8
:1038A00001008168DFF8240602883820424301EBDA
:1038B000020040680068834693E0380080B2002828
:1038C00040F08F80DFF83C0401880C20414306EB78
:1038D00001008168DFF8F40502883820424301EBDB
:1038E0000200406890ED000BB0EE408AF0EE608A76
:1038F00077E0380080B2012812D1DFF8080401888F
:103900000C20414306EB01008168DFF8C005028806
:103910003820424301EB020040680078834660E0B3
:10392000380080B2022812D1DFF8D80301880C20B9
:10393000414306EB01008168DFF8900502883820DA
:10394000424301EB020040680088834649E03800AA
:1039500080B2032815D1DFF8AC0301880C20414365
:1039600006EB01008168DFF86405028838204243D5
:1039700001EB0200406800682EF088FB41EC180B58
:103980002FE0380080B2042812D1DFF878030188D4
:103990000C20414306EB01008168DFF83005028806
:1039A0003820424301EB020040680068834618E07B
:1039B000380080B2002814D1D24801880C2041433D
:1039C00006EB01008168DFF80405028838204243D5
:1039D00001EB0200406890ED000BB0EE408AF0EE83
:1039E000608A380080B2002804D0380080B20328F2
:1039F00040F04681C34801880C20414306EB01009A
:103A00008168DFF8C80402883820424301EB0200D5
:103A1000008BADF80800BB4801880C20414306EB41
:103A200001008168DFF8A40402883820424301EBDA
:103A30000200C0690088ADF80C0051EC180B0022A0
:103A400000232EF0A9FC03D82B208DF80A000BE0F0
:103A500053EC182B0020DFF8B01D2EF0B7FC41EC22
:103A6000180B2D208DF80A00BDF80C002EF086FCF6
:103A700053EC182B2EF0AAFC41EC1B0BBDF80800F0
:103A80002EF07CFC02000B0051EC1B0B2EF074FDA1
:103A900041EC1A0B51EC1A0BDFF8702DDFF8703D7A
:103AA0002EF07AFC05D89FED9C1BB0EE41AAF0EEFB
:103AB00061AA51EC1A0B2EF03DFC040020002EF000
:103AC0005DFC02000B0051EC1A0B2EF0C1FBDFF87D
:103AD000442DC2E90001DFF8409D0A20ADF8000046
:103AE000BDF800A0874801880C20414306EB010087
:103AF0008168DFF8D80302883820424301EB0200D6
:103B0000008EC0F38310BAEB000A504600B20028C2
:103B100001D5002082460025B9F1010F44D0B4FB45
:103B2000F9F0ADF80800B4FBF9F009FB1044BDF85A
:103B30000800284380B200280CD1504680B20028EB
:103B400002D0BAF1010A2BE020207049087006F07B
:103B500000FF25E0280080B2002818D169480188BC
:103B60000C20414306EB01008168D84802883820C8
:103B7000424301EB0200008EC0F3802080B2002897
:103B800005D19DF80A006149087006F0E2FE0120A7
:103B90000500BDF8080030305C49087006F0D9FE19
:103BA0000A20B9FBF0F9B7E7280080B2002818D145
:103BB000544801880C20414306EB01008168C3484A
:103BC00002883820424301EB0200008EC0F38020BF
:103BD00080B2002805D19DF80A004C49087006F013
:103BE000B8FE14F130004949087006F0B2FE092011
:103BF00088F8000000F002BE4649424802880C20C6
:103C0000424301EB02008168B048028838204243F9
:103C100001EB0200008EC0F3C2000500280080B254
:103C2000002800F02F82394F2E20387006F091FEC8
:103C3000280080B2002800F02582DFF8D86BD6E992
:103C400000230020DFF8D41B2EF0C0FBC6E90001E2
:103C5000D6E900012EF0B4FD040014F130003870F4
:103C600006F077FE200080B22EF088FB02000B00E9
:103C7000D6E900012EF0ECFAC6E900016D1ED7E787
:103C8000204801880C20414306EB010081688F48E1
:103C900002883820424301EB0200008BADF8080097
:103CA000184801880C20414306EB010081688748D1
:103CB00002883820424301EB0200C0690088ADF859
:103CC0000C00104801880C20414306EB010081687C
:103CD0007E4802883820424301EB0200008EC0F388
:103CE000802080B2002826D1BBF1000F1CD42B20ED
:103CF0008DF80A001FE000BF24D70300D41C001079
:103D0000B4CE0080B2CE008050F60300F8D0008020
:103D1000B8CD0080BC9203000000E0FFFFFFEF4140
:103D2000F9D00080C6CE00807FEA0B0B1BF1010B9F
:103D30002D208DF80A00DFF8E80A01880C204143A5
:103D400006EB01008168614802883820424301EB9C
:103D50000200008EC0F3803080B2002804D03D0005
:103D6000BDF80870ADF80850380080B204281ED0A5
:103D7000BDF80C0000FB0BF0BDF80810B0FBF1F231
:103D800001FB1201DFF89C2A1180BDF80810DFF852
:103D9000982A1180BDF80810B0FBF1F00490049847
:103DA000B0F5803F59D34FF6FF70049055E0584668
:103DB0002EF0E4FACDE90001BDF80C002EF0DEFA99
:103DC000DDE900232EF002FB41EC180BBDF80800E2
:103DD0002EF0D4FA02000B0051EC180B2EF0CCFBA5
:103DE00041EC190B51EC190BDFF8202ADFF8203ACF
:103DF0002EF0D2FA0FD89FEDC51BB0EE419AF0EE2F
:103E0000619ABDF808002EF0B9FA53EC192B2EF088
:103E1000DDFA41EC180B51EC190B2EF08BFA0490E3
:103E200004982EF0ABFACDE90001BDF808002EF0A1
:103E3000A5FADDE900232EF0C9FA02000B0051ECCF
:103E4000180B2EF005FA2EF0BBFCDFF8D81908800D
:103E5000BDF80800DFF8D0190880380080B20428C7
:103E600008D042F210708346052407E0F4D00080A9
:103E700078C20080DFF8A00983460A24134F5FF060
:103E80000C09DFF89CA9BAF8000009FB00F03044E7
:103E900081683A883820424301EB0200008EC0F36B
:103EA0008310201A05002800210080B289B28842C0
:103EB0000ED10220050011E07CD00080B4CD00803E
:103EC00040D10080F5D00080C2CE0080B6CE008008
:103ED000280000B2002801D5002005000020ADF820
:103EE0000C00BBF1010F4BD00498B0FBFBF0ADF818
:103EF000080004980499B1FBFBF10BFB110004903E
:103F0000BDF80810BDF80C00014389B200290CD19E
:103F1000280080B2002801D06D1E2DE02020DFF89F
:103F20000C19087006F015FD26E0BDF80C000028FD
:103F300017D1BAF8000009FB00F0304481683A88D4
:103F40003820424301EB0200008EC0F3802080B293
:103F5000002806D19DF80A00DFF8D018087006F096
:103F6000F8FC0120ADF80C00BDF808003030DFF897
:103F7000BC18087006F0EDFC0A20BBFBF0FBB0E7B4
:103F8000BDF80C00002818D1BAF8000009FB00F9B0
:103F900006EB090081683A883820424301EB0200B1
:103FA000008EC0F3802080B2002806D19DF80A0060
:103FB000DFF87818087006F0CCFC04983030DFF891
:103FC0006C18087006F0C5FC0A2088F8000000F0A4
:103FD00013BC3820DFF858180C22DFF84438DFF81B
:103FE00054681F8857433744BF68B1F800C000FBCE
:103FF0000CFC67443F8EC7F38317BFB2002F02D17A
:10400000022005000CE01B8802FB03F23244926898
:10401000098800FB01F01044008EC0F3C2000500C7
:10402000280080B200282DD0DFF800682E203070E4
:1040300006F08FFCDFF8F0070088ADF80800DFF825
:10404000E40700880490280080B200281AD0049960
:104050000A2041438B46BDF80800BBFBF0F100FB92
:1040600011B00490BDF80800BBFBF0F0040014F19F
:104070003000307006F06DFC6D1EE4E70ED100805C
:10408000F2D000803826DFF8A8775FF00C09DFF85F
:10409000A4A7DFF88C07008809FB00F05044806873
:1040A000398871430844C06ADFF88C17086006F04D
:1040B0008DFCDFF86C07008809FB00F90AEB0900AA
:1040C0008068398806FB01F63044008EC0F3C020BA
:1040D00080B200280DD0DFF864070088C0F380109C
:1040E00080B2002805D12320DFF84017087006F0C1
:1040F00030FC0020DFF84817087003E00120DFF8EB
:10410000401708700B2088F8000075E30000E0FFFE
:10411000FFFFEF41A8CD008006F02EFC002800F044
:1041200057835FF0380ADFF80897DFF8F466DFF8A6
:10413000047731880C20414307EB01008068B9F80F
:1041400000100AFB01F1084490F8300010F007005D
:10415000040031880C20414307EB01008068B9F866
:1041600000100AFB01F10844008EC0F3802080B2E9
:10417000002803D0200080B2002874D1200080B233
:10418000012815D131880C20414307EB01008068DC
:10419000B9F800100AFB01F10844406890F90000EA
:1041A0002EF0DAF841EC180BCBE000BF18CD008000
:1041B000200080B2022812D131880C20414307EB45
:1041C00001008068B9F800100AFB01F1084440685A
:1041D000B0F900002EF0C0F841EC180BB1E020005F
:1041E00080B2032811D131880C20414307EB010034
:1041F0008068B9F800100AFB01F1084440680068C3
:104200002DF044FF41EC180B9BE0200080B2042805
:1042100011D131880C20414307EB01008068B9F8C7
:1042200000100AFB01F10844406800682EF094F881
:1042300041EC180B85E0200080B2002840F081801E
:1042400031880C20414307EB01008068B9F8001069
:104250000AFB01F10844406890ED000BB0EE408A83
:10426000F0EE608A6DE0200080B2012811D1318823
:104270000C20414307EB01008068B9F800100AFBED
:1042800001F10844406800782EF078F841EC180BF2
:1042900057E0200080B2022811D131880C20414320
:1042A00007EB01008068B9F800100AFB01F108442F
:1042B000406800882EF062F841EC180B41E02000C5
:1042C00080B2032811D131880C20414307EB010053
:1042D0008068B9F800100AFB01F1084440680068E2
:1042E0002DF0D4FE41EC180B2BE0200080B2042806
:1042F00011D131880C20414307EB01008068B9F8E7
:1043000000100AFB01F10844406800682EF036F8FE
:1043100041EC180B15E0200080B2002811D1318843
:104320000C20414307EB01008068B9F800100AFB3C
:1043300001F10844406890ED000BB0EE408AF0EEC9
:10434000608ADFF83C0B0178491C11F07F01017095
:10435000DFF8301B0078085CDFF8D0140870DFF855
:10436000CC0400781B282CD1DFF81C0B90ED000B3F
:10437000B0EE408AF0EE608AB9A0DFF8BC140860A5
:1043800006F024FB31880C2041437858DFF8A8144C
:10439000086006F01BFB0A20DFF89014087006F096
:1043A000D8FA31880C20414307EB010080880128AE
:1043B00003D1062088F8000029E1032088F80000D6
:1043C00025E1DFF8680400780D2824D1A4A0DFF8E7
:1043D0006814086006F0FAFA31880C2041437858D6
:1043E000DFF85414086006F0F1FA0A20DFF83C14F4
:1043F000087006F0AEFA31880C20414307EB01004B
:104400008088012803D1062088F80000FFE00320FF
:1044100088F80000FBE031880C20414307EB0100E5
:104420008068B9F800100AFB01F10844008EC0F35F
:10443000C02080B2002808D0DFF800040088C0F354
:10444000801080B2002800F0DD80DFF8E003017802
:104450002B2967D1DFF8341A0988C1F3002189B20A
:1044600000295FD053EC182B31880C20414307EB17
:1044700001008068B9F800100AFB01F10844D0E996
:1044800008012DF027FE41EC180B31880C20414328
:1044900007EB01008068B9F800100AFB01F108443D
:1044A00090ED040BB0EE409AF0EE609A200080B2DE
:1044B000012803D0200080B2022824D151EC190B2E
:1044C0002EF07EF9ADF8080031880C20414307EB4F
:1044D00001008068B9F800100AFB01F10844008E61
:1044E000C0F3802080B2002807D1BDF9080000B2D7
:1044F0002DF032FF41EC190B05E0BDF808002DF05E
:104500003DFF41EC190B51EC190B53EC182B2EF01D
:1045100073F903D2B0EE498AF0EE698A072088F871
:10452000000074E001782D2967D1DFF8601909884F
:10453000C1F3002189B200295FD051EC180B3388F8
:104540000C22534307EB03029268B9F800300AFBD0
:1045500003F31A44D2E908232DF07AFE41EC180B3C
:1045600031880C20414307EB01008068B9F8001046
:104570000AFB01F1084490ED020BB0EE409AF0EE18
:10458000609A200080B2012803D0200080B2022867
:1045900024D151EC190B2EF013F9ADF80800318835
:1045A0000C20414307EB01008068B9F800100AFBBA
:1045B00001F10844008EC0F3802080B2002807D1AA
:1045C000BDF9080000B22DF0C7FE41EC190B05E063
:1045D000BDF808002DF0D2FE41EC190B51EC180B80
:1045E00053EC192B2EF008F903D2B0EE498AF0EE05
:1045F000698A072088F8000009E00078DFF8901841
:10460000087004E089480078DFF8841808700C20EE
:104610003188414339448968B9F800200AFB02F225
:104620001144098EC1F3802189B2002903D02100F1
:1046300089B2002967D1210089B2012912D13188BC
:1046400000FB01F038448068B9F800100AFB01FA59
:104650005044466851EC180B2EF0B2F83070B7E0B9
:104660000A0D0000210089B2022910D1318800FB17
:1046700001F038448068B9F800100AFB01FA504490
:10468000466851EC180B2EF09BF83080A0E021001A
:1046900089B2032910D1318800FB01F038448068C9
:1046A000B9F800100AFB01FA5044466851EC180BA7
:1046B0002EF0BCF830608BE0210089B2042910D1C3
:1046C000318800FB01F038448068B9F800100AFB1B
:1046D00001FA5044466851EC180B2EF071F8306026
:1046E00076E0210089B2002972D1318800FB01F007
:1046F00038448068B9F800100AFB01FA5044406859
:1047000080ED008B64E0210089B2012910D131884D
:1047100000FB01F038448068B9F800100AFB01FA88
:104720005044466851EC180B2EF04AF830704FE0B8
:10473000210089B2022910D1318800FB01F03844F0
:104740008068B9F800100AFB01FA5044466851EC41
:10475000180B2EF035F830803AE0210089B2032999
:1047600010D1318800FB01F038448068B9F800109E
:104770000AFB01FA5044466851EC180B2EF056F82B
:10478000306025E0210089B2042910D1318800FB76
:1047900001F038448068B9F800100AFB01FA50446F
:1047A000466851EC180B2DF0C5FD306010E021007B
:1047B00089B200290CD1318800FB01F038448068AF
:1047C000B9F800100AFB01FA5044406880ED008BF4
:1047D0001B480078012802D1072088F80000DFF884
:1047E000B406DFF8B4160A6803689A4204D0096870
:1047F0000160072088F8000006F0BAF806B0BDECAA
:10480000088BBDE8F78F00BF0000F0BF0100E0FF9C
:10481000FFFFEF4110CD008000CA9A3B000024400A
:10482000B2CE0080B4CE008004CC0080F8D00080EE
:10483000B6CE0080BC920300B8CD008006CF0080C9
:1048400040D100802DE9F34F81B0DFF84066308819
:10485000C0F3400080B2002814D031884FF6FD70BC
:10486000014031803088C0F3002080B2002804D19C
:10487000C820DFF82816087003E0D220DFF81C16E5
:104880000870FBE2DFF814763878002800F0C58065
:10489000052800F0C2800A2800F05781142800F093
:1048A0000A82C92810D0D22819D0DFF8F405DFF821
:1048B000F415086006F08AF8DFF8EC050088DFF8E8
:1048C000EC150880C9203870DFF8DC050188DFF8B6
:1048D000DC050088091A89B22E29C0F0CD82DFF8E4
:1048E000D0850020A8F80000DFF8C8950020A9F8BE
:1048F0000000BDF80800002803D0BDF80800022819
:1049000022DBDFF8B405DFF89C15086006F05EF8DE
:104910000A20DFF8A815087006F01BF80020387090
:10492000BDF8080002280ADBDFF894050199B9F800
:104930000020895C0180008814286DDB19E10020CB
:10494000DFF87C15088067E0DFF87495019800783F
:10495000A9F80000DFF864A50A208AF8000005F035
:10496000F8FF0D208AF8000005F0F3FFB9F8000009
:10497000132807DB4120DFF84C150880308850F001
:1049800002003080DFF810050068DFF818150860B5
:1049900006F01CF85FF0740BDFF82CA5B9F80000E6
:1049A0000BFB00F05AF80000DFF8F814086006F07E
:1049B0000DF80020A8F80000B9F800000BFB00F08B
:1049C0005044C06E0088B9F800100BFB01F151444F
:1049D000B8F8002001EB4201B1F84C10084219D19F
:1049E000B8F80000B9F800100BFB01F15144097A46
:1049F00089B2884208D34120DFF8C8140880308883
:104A000050F00200308005E0B8F80000401CA8F823
:104A10000000D1E70520387030E205F0C1FF002822
:104A200000F08F80387805281BD00D20DFF88C141B
:104A3000087005F08EFFDFF86C64DFF85C04006836
:104A4000306005F0C3FFDFF88014DFF874040288DB
:104A5000742042438858306005F0B8FF0A2038704F
:104A60006EE07426DFF85884DFF85C94B8F8000034
:104A70007043484490F8700010F00300012807D1FB
:104A8000B8F800007043484440680078040006E02D
:104A9000B8F8000070434844406800880400DFF81C
:104AA0001CA40D208AF8000005F053FFDFF8E8038E
:104AB0000068DFF8F013086005F088FFDFF8F0B356
:104AC000B8F8000070434844BBF8001000EB8100C8
:104AD000C0680090002005000098290089B2405C61
:104AE00000280DD0280080B20E2809DA009829008D
:104AF00089B2405C8AF8000005F02BFF6D1CEBE7E3
:104B00003D208AF8000005F024FFB8F8000006FBFD
:104B100000F609EB0600BBF8001000EB4100B0F80E
:104B20004C00044205D130208AF8000005F011FF46
:104B300004E031208AF8000005F00BFF14203870E3
:104B40009AE13878052800F0B68005F015FF0028B6
:104B500000F0A680CA480178491C11F07F0101705D
:104B6000DFF85813C74A0078105C087008781B28D3
:104B700008D14120DFF84C130880308850F0020043
:104B800030807BE108782D2823D1BDF80800022869
:104B900013DBC8480188491C01800188BDF8082042
:104BA000914201D300210180C549019A0088105C1F
:104BB00008800888142809DBDBE7C1480188491C04
:104BC00001800188132901DB002101800020387059
:104BD000BBE708782B2823D1BDF80800022813DB97
:104BE000B44801884A1E028089B2002903D1BDF869
:104BF0000810491E0180B249019A0088105C0880A3
:104C00000888142809DBB4E7AD4801884A1E0280F1
:104C100089B2002901D1122101800020387094E767
:104C200008780D2838D1A24A002010807423DFF8BC
:104C300090C2DFF894E2BCF8000058437044C06EA4
:104C40000088BCF8008003FB08F8F044B2F800903C
:104C500008EB4908B8F84C8010EA080F15D1108805
:104C6000BCF800C003FB0CF373441B7A9BB2984260
:104C700007D3412093490880308850F002003080EB
:104C8000FCE01088401C1080D0E70A20087005F076
:104C900060FE0520387058E708787D49087054E7B1
:104CA0007C487D490A6803689A4203D0096801601C
:104CB00000203870E0E005F05FFE002800F0D280B0
:104CC0005FF07408DFF8F891DFF8FCA1B9F8000094
:104CD00008FB00F0504490F8700010F00300012829
:104CE00008D1B9F8000008FB00F050444068007893
:104CF000040007E0B9F8000008FB00F050444068E9
:104D0000008804005E480178491C11F07F010170A1
:104D1000DFF8A8B15B490078085C8BF800009BF8CD
:104D200000001B2811D1BDF8080001283FF421AF75
:104D300061485C49086005F049FE0A208BF80000D4
:104D400005F007FE002038706FE09BF800002D286A
:104D500025D157480188491C01800188B9F80020F5
:104D600008FB02F25244127A92B2914201D300211E
:104D70000180B9F8001008FB01F15144C96E09889F
:104D8000B9F8002008FB02F25244008802EB400010
:104D9000B0F84C201142DCD00520387045E09BF87B
:104DA00000002B2824D1424801884A1E028089B283
:104DB000002907D1B9F8001008FB01F15144097A24
:104DC000491E0180B9F8001008FB01F15144C96E79
:104DD0000988B9F8002008FB02F25244008802EB6F
:104DE0004000B0F84C201142DDD0052038701CE0A6
:104DF0009BF800000D2814D13088C0F3002080B249
:104E000000280ED0B9F8000008FB00F050442849F3
:104E1000098800EB4100B0F84C0044400520387090
:104E200003E09BF800001A490870B9F8000008FB7D
:104E300000F0504490F8700010F00300012808D1F1
:104E4000B9F8000008FB00F80AEB0800406804709D
:104E500031E7B9F8000008FB00F80AEB08004068E9
:104E6000048028E70B480C490A6803689A4203D07B
:104E7000096801600520387005F07AFDBDE8F78FFC
:104E8000F5D0008078C2008018CD0080C6CE0080AA
:104E9000F2D00080A8CD0080B4CD0080F9D0008091
:104EA00024D70300B8CD0080D41C0010B4CE0080FD
:104EB000B6CE0080B8CE008004D40300F8D00080C5
:104EC000B2CE0080C2CE0080888103002DE9F84F69
:104ED0002DED028B86B0DFF88C6D3088C0F340007A
:104EE00080B2002820D031884FF6FD70014031801B
:104EF0006420DFF8741D08700020DFF8701D088042
:104F00000020DFF86C1D0880042006F0E9F800207E
:104F1000DFF8601D0870DFF8601D0878002801D1F7
:104F2000C820087000F0F7BFDFF83C5D28780F2834
:104F300000F03186102800F04D87172800F0878197
:104F400067281AD0692839D06B2854D0972800F0E8
:104F50001B84C82800F0A980CD2800F0FC80DFF871
:104F60001C0DDFF81C1D086005F030FD0A20DFF87D
:104F7000141D087005F0EDFC03E005F011FD00289C
:104F80001CD00D20DFF8FC1C087005F0E2FCDFF8F7
:104F9000F06CDFF8F40C0068306005F017FDDFF806
:104FA000C01DDFF8C80C02880C20424388583060CE
:104FB00005F00CFD6920287000F0ABBFDFF8B87C6D
:104FC00038786B2852D00220ADF80E0005F0D4FCE2
:104FD000002859D0DFF88C0D0178491C11F07F01B1
:104FE0000170DFF8A01CDFF8802D0078105C0870DD
:104FF00008781B2813D10A20DFF8881C087005F0F8
:10500000A8FC4120DFF8641D0880308850F00200C1
:1050100030800020DFF8601C087000F07CBF08784A
:105020002D280ED1DFF8440C0188491C018001882D
:10503000BDF80E20914201D3002101806720287025
:10504000C4E708782B280ED1DFF8200C01884A1E0F
:10505000028089B2002903D1BDF80E10491E0180DB
:1050600067202870B2E708780D2808D10A20DFF8F9
:10507000141C087005F06DFCC8202870A6E708789D
:10508000DFF85C1D0870A1E7DFF8580DDFF8F81BAA
:105090000A6803689A4206D03A786B2A03D00968F6
:1050A00001606720287000F034BF05F079FC00280B
:1050B00023D00D20DFF8CC1B087005F04AFCDFF888
:1050C000C06BDFF8C40B0068306005F07FFCDFF8D0
:1050D000901CDFF8980B02880C20424301EB020081
:1050E0008168DFF88C0B02882420424388583060A6
:1050F00005F06CFCCD20287027E0DFF8780B0078F5
:10510000012822D10D20DFF87C1B087005F021FC5E
:10511000DFF86C6BDFF8700B0068306005F056FC50
:10512000DFF83C1CDFF8440B02880C20424301EB03
:1051300002008168DFF8380B028824204243885837
:10514000306005F043FCCD202870DFF8280B007894
:10515000002800F0DE86DFF8206B30786B284ED018
:10516000DFF8FC1BDFF8040B02880C20424301EB44
:1051700002008088ADF80E0005F0FEFB00284CD040
:10518000DFF8E00B0178491C11F07F010170DFF8B6
:10519000F41ADFF8D42B0078105C087008781B280C
:1051A00006D10020DFF8C81A08806420287034E097
:1051B00008782D280ED1DFF8B80A0188491C018033
:1051C0000188BDF80E20914201D300210180C82042
:1051D0002870D1E708782B280ED1DFF8940A0188CF
:1051E0004A1E028089B2002903D1BDF80E10491E63
:1051F0000180C8202870BFE708780D2808D10A2050
:10520000DFF8801A087005F0A4FB17202870B3E7B8
:105210000878DFF8CC1B0870AEE7DFF8C80BDFF8C2
:10522000681A0A6803689A4206D032786B2A03D05B
:1052300009680160C8202870DFF8380A0178012960
:1052400001D1172129700078002800F06286DFF86C
:10525000246A307801280BD105F0A2FB002807D082
:105260000A20DFF8201A087005F073FB0020307068
:1052700005F096FB002800F0BD85DFF8400D0188A1
:10528000DFF83C0D0088091A89B2032903D230786F
:10529000012840F0AF850D20DFF8E819087005F00F
:1052A00058FBDFF8E4090068DFF8D419086005F05E
:1052B0008DFB0020DFF80C1D0880DFF8086D3088BA
:1052C000022880F291852427DFF8941ADFF89C09E0
:1052D00002880C20424301EB02008068DFF890193D
:1052E000098879430844318800EB410090F8200098
:1052F00010F00700ADF80800DFF8641ADFF86C0959
:1053000002880C20424301EB02008068DFF860193C
:10531000098879430844318800EB4100008CC0F3D0
:10532000802080B2002804D0BDF80800002840F09A
:105330008C80BDF80800012816D1DFF8241ADFF8A8
:105340002C0902880C20424301EB02008068DFF840
:105350002019098879430844318800EB81004068AE
:1053600090F900000490DAE0BDF80800022816D198
:10537000DFF8EC19DFF8F40802880C20424301EB57
:1053800002008068DFF8E81809887943084431880A
:1053900000EB81004068B0F900000490BFE0BDF868
:1053A0000800032818D1DFF8B819DFF8C008028810
:1053B0000C20424301EB02008068DFF8B418098832
:1053C00079430844318800EB8100406800682CF084
:1053D0005DFE41EC180BA2E0BDF80800042815D1D1
:1053E000DFF87C19DFF8840802880C20424301EBC7
:1053F00002008068DFF8781809887943084431880A
:1054000000EB810040680068049088E0BDF8080067
:10541000002840F08480DFF84819DFF8500802883F
:105420000C20424301EB02008068DFF84418098831
:1054300079430844318800EB8100406890ED000B0F
:10544000B0EE408AF0EE608A69E0BDF808000128FD
:1054500015D1DFF80C19DFF8140802880C2042433C
:1054600001EB02008068DFF80818098879430844D6
:10547000318800EB81004068007804904FE0BDF86F
:105480000800022815D1DFF8D818DFF8E0070288F5
:105490000C20424301EB02008068DFF8D417098832
:1054A00079430844318800EB81004068008804900B
:1054B00035E0BDF80800032818D1DFF8A418DFF89C
:1054C000AC0702880C20424301EB02008068DFF841
:1054D000A017098879430844318800EB81004068AF
:1054E00000682CF0D3FD41EC180B18E0BDF8080063
:1054F000042814D1DFF86818DFF8700702880C2040
:10550000424301EB02008068DFF8641709887943A1
:105510000844318800EB8100406800680490BDF8C1
:105520000800002804D0BDF80800032840F0988146
:10553000DFF82C18DFF8340702880C20424301EB17
:1055400002008068DFF82817098879430844318809
:1055500000EB410080890400DFF80418DFF80C0735
:1055600002880C20424301EB02008068DFF800173C
:10557000098879430844318800EB810080690088FC
:10558000ADF80C0051EC180B002200232CF004FFA6
:1055900003D82B208DF80A000BE053EC182B0020C9
:1055A000DFF8281A2CF012FF41EC180B2D208DF893
:1055B0000A00BDF80C002CF0E1FE53EC182B2CF087
:1055C00005FF41EC180B200080B22CF0D7FE020042
:1055D0000B0051EC180B2CF0CFFF41EC180B51ECE9
:1055E000180BDFF8342BDFF8343B2CF0D5FE05D850
:1055F0009FED991BB0EE418AF0EE618A53EC182BB7
:105600000020DFF81C1B2DF045F900F00D8153EC54
:10561000182B5FF0FF307FF000412DF03BF900F0D8
:10562000038151EC180B2CF085FE804640462CF08F
:10563000A5FE02000B0051EC180B2CF009FEDFF860
:10564000E42AC2E90001DFF8E0AA0A20ADF8080068
:10565000BDF808B0DFF80817DFF8100602880C2044
:10566000424301EB02008068DFF8041609887943A1
:105670000844318800EB4100008CC0F38310BBEB81
:10568000000B584600B2002801D5002083465FF089
:105690000009BAF1010F49D0B8FBFAF00400B8FBD9
:1056A000FAF00AFB108859EA040080B200280DD1F4
:1056B000584680B2002802D0BBF1010B32E0202016
:1056C000DFF8C015087005F044F92BE0484680B2B9
:1056D00000281ED1DFF88816DFF8900502880C201C
:1056E000424301EB02008068DFF8841509887943A2
:1056F0000844318800EB4100008CC0F3802080B268
:10570000002806D19DF80A00DFF87815087005F02A
:1057100020F90120814614F13000DFF86815087087
:1057200005F017F90A20BAFBF0FAB2E7484680B252
:1057300000281FD1DFF82816DFF8300502880C207A
:10574000424301EB02008068DFF82415098807FB5B
:1057500001F73844318800EB4100008CC0F3802011
:1057600080B2002806D19DF80A00DFF818150870ED
:1057700005F0EFF818F13000DFF80815087005F0B3
:10578000E8F897202870C6E3DFF8D415DFF8DC04CA
:1057900002880C20424301EB02008168DFF8D0044C
:1057A00002882420424301EB0200DFF81818098820
:1057B00000EB4100008CC0F3C2008146484680B235
:1057C000002800F0D582DFF8BC742E20387005F078
:1057D000C0F8484680B2002800F0CA82DFF8446969
:1057E000D6E900230020DFF844192CF0EFFDC6E9CC
:1057F0000001D6E900012CF0E3FFADF80800BDF888
:1058000008003030387005F0A4F8BDF808002CF01E
:10581000B5FD02000B00D6E900012CF019FDC6E928
:105820000001B9F10109D4E753EC182B0020DFF88F
:10583000F0182DF02FF807D1DFF8F408DFF8401446
:10584000086005F0C3F893E2DFF85409DFF830147C
:10585000086005F0BBF88BE20000E0FFFFFFEF41BE
:10586000DFF8FC14DFF8040402880C20424301EB4B
:1058700002008068DFF8F81309887943084431880A
:1058800000EB4100008CC0F3013080B2002840F0F2
:10589000FD81DFF8CC14DFF8D40302880C204243EA
:1058A00001EB02008068DFF8C813098879430844D7
:1058B000318800EB4100B0F80C80DFF8A414DFF869
:1058C000AC0302880C20424301EB02008068DFF841
:1058D000A013098879430844318800EB810080696E
:1058E0000088ADF80C00DFF87814DFF88003028838
:1058F0000C20424301EB02008068DFF87413098832
:1059000079430844318800EB4100008CC0F38020CB
:1059100080B200280DD10498002803D42B208DF8E4
:105920000A0006E00498C043401C04902D208DF826
:105930000A00DFF82C14CD4802880C20424301EB0A
:1059400002008068CA49098879430844318800EB1D
:105950004100008CC0F3803080B2002806D004984B
:1059600081461FFA88F8CDF81080C846BDF80800B7
:10597000042814D00499BDF80C004143424692B269
:10598000DFF82008B1FBF2F302FB1312A0F80320AA
:10599000A0F80080404680B2B1FBF0F455E00498D6
:1059A0002CF0ECFC82468B46BDF80C002CF0E6FC9B
:1059B00052465B462CF00AFD41EC180BDFF86447B9
:1059C000404680B22CF0DAFC02000B0051EC180BC0
:1059D0002CF0D2FDC4E90001D4E90001DFF838273A
:1059E000DFF838372CF0D8FC0FD8DFF8BC07DFF829
:1059F0002C17C4E90001404680B22CF0BFFCD4E96A
:105A000000232CF0E3FC41EC180BD4E900012CF04E
:105A100091FC0400DFF88CA720002CF0AFFCCDE94E
:105A20000001404680B22CF0A9FCDDE900232CF0F7
:105A3000CDFC02000B0051EC180B2CF009FC2CF0F3
:105A4000BFFEAAF80300AAF80080BDF808000428E9
:105A500005D042F2107A0520ADF8080004E0DFF826
:105A6000C8A60A20ADF80800BDF808B0BC497F48B8
:105A700002880C20424301EB020080687C490988BF
:105A800079430844318800EB4100008CC0F3831057
:105A9000BBEB000B5846BDF8081080B2884202D11B
:105AA0000220834605E0584600B2002801D50020B8
:105AB00083465FF00009BAF1010F43D0B4FBFAF05E
:105AC0008046B4FBFAF00AFB104459EA080080B2A1
:105AD00000280CD1584680B2002802D0BBF1010B3F
