:1000000028150010D19103002D9F0300319F03009C
:10001000359F0300399F03003D9F0300FE3CEAEF3C
:10002000000000000000000000000000419F0300ED
:10003000459F030000000000499F03004D9F0300FF
:10004000519F030031140000A5140000C1140000EA
:10005000DD1400005D820000559F0300839F0200B5
:10006000599F03005D9F0300619F0300659F03008C
:10007000699F0300000000006D9F0300719F030053
:10008000759F0300799F03007331000085310000E4
:1000900029D302007D9F0300819F0300859F0300F9
:1000A000899F0300D1240200D17D00008D9F0300B1
:1000B000919F0300959F0300999F0300956F010096
:1000C0009D9F0300A19F0300A59F0300A99F03001C
:1000D000AD9F0300B19F0300E5760000B59F0300CC
:1000E000B99F030030B5016884684218416802EB8B
:1000F0005103C90748BF4C449A4218BF12F9011B6B
:1001000003D10C3030BD04F8015B0029F4D0002588
:10011000002946BF12F8015B491C491EF3E70000A5
:1001200062B38B0708D0521E11F8013B00F8013B67
:1001300000F024808B07F6D1830740F0208000BFB9
:10014000103A07D330B4B1E83810103AA0E83810AC
:10015000F9D230BC530724BFB1E80810A0E808105A
:1001600044BF51F8043B40F8043BD20724BF31F8A8
:10017000022B20F8022B44BF0B7803707047121F2C
:1001800017D35B0009D151F8043B20F8023B1B0C4C
:10019000121F20F8023BF6D20BE051F8043B00F8A6
:1001A000013B1B0A20F8023B1B0C121F00F8013B0D
:1001B000F3D238BF121D521E24BF11F8013B00F8C4
:1001C000013BF8D870474FF4FD6101800121418067
:1001D000012181800021C180002101810021418114
:1001E00070472500C0F3C75181B1FF2906D0C11067
:1001F000400721F0E04101F16051704741020CBF1E
:1002000040F4E0016FF000410020704700F0004131
:1002100000020AD0B0FA80FC00FA0CF001F1605143
:10022000A1EB0C5101EBD021400570472C000000E0
:10023000400D40F21E4C40EAC120BCEB115C40F086
:10024000004003D48CF30701C84070476FEAE170A7
:100250007047200010F0004160B148BF4042B0FA42
:1002600080F29040D21CC2F5846241EA025202EB55
:06027000D021400570479B
:1002FC00FFFFFFFF80B5DFED7C1A9FED7C1ADFED71
:10030C007C0A9FED7B0ADFF8480A14F0F3FF01BD6D
:10031C0010B410F00703DFF83C4A22684FF6FF01D7
:10032C000A4052EA0322DFF8781B0A43226010BC11
:10033C007047012210F01F018A40DFF8681B030090
:10034C005BB25B0941F823207047012210F01F01BA
:10035C008A40DFF8541B03005BB25B0941F8232091
:10036C00704710B4020052B2002A0AD5CA00DFF856
:10037C00E839040064B214F00F04234403F8042C8D
:10038C0005E0CA00DFF8503B040064B21A5510BCFB
:10039C007047DFF8C8090068C00604D41020DFF8E5
:1003AC00C019086003E01020DFF8301B08607047AC
:1003BC0038B50400200080B2002822D1DFF8A4094F
:1003CC000088DFF8A4190880DFF8A0090B21017060
:1003DC00002141700B2181700021C1700B21017132
:1003EC0000214171D0E90023DFF8F41AC1E90023A0
:1003FC000078DFF87C1908700AF041FA0AF04EFA1E
:10040C0071E0DFF86419DFF85C29138808881B1A7F
:10041C009BB2082B67D310880880DFF85809018835
:10042C00492918D0DFF850190A88C2F3001292B289
:10043C00002A10D102884A2A0DD002884B2A0AD0F1
:10044C0002884C2A07D000884D2804D0087810F078
:10045C000100002800D046E0DFF810596878002829
:10046C0011D06878DFF8781A4978884207D1287853
:10047C00DFF8FC1808700AF002FA0AF00FFA687834
:10048C00401E68702FE0E878002811D0E878DFF87B
:10049C00501AC978884207D1A878DFF8D4180870A8
:1004AC000AF0EDF90AF0FAF9E878401EE8701AE063
:1004BC006879002811D06879DFF8241A49798842C4
:1004CC0007D12879DFF8A81808700AF0D8F90AF0D3
:1004DC00E5F96879401E687105E0DFF8040AD0E997
:1004EC000023C5E9002331BDCDCCCC3D0AD7233C3C
:1004FC00000000002DE9F14FBDF80000002815D1D7
:10050C00DFF8E009B0F84001002806D1DFF86808F0
:10051C00018851F48071018006E0DFF85C180A88CC
:10052C004FF6FF6002400A80002037E3BDF8000060
:10053C00022836D1DFF840683088C0F3002080B242
:10054C0000282CD13088C0F3400080B2002812D093
:10055C00DFF89409DFF8941908600AF0CDF9DFF898
:10056C0004080088DFF88819088031884FF6FD7080
:10057C000140318011E0DFF8EC070188DFF87009E9
:10058C000088091A89B22F2907D34120DFF8E41714
:10059C000880308850F0020030800020FEE20120FC
:1005AC00FCE2DFF8D4673088C0F3400080B200284A
:1005BC0014D031884FF6FD7001403180DFF8A4076C
:1005CC000088DFF82C1908800020DFF82819087043
:1005DC000020DFF8241908800020DFE2DFF814790E
:1005EC00387801281ED010D3032800F0B3804FD3E5
:1005FC00052800F06581C0F0C180072800F0A682B4
:10060C00C0F05282082800F0BE82DFF8F008DFF854
:10061C00DC1808600AF070F90020DFF8DC1808809C
:10062C00012038700AF052F9002831D03088C0F31C
:10063C00002080B2002814D1DFF8BC080088002804
:10064C0007D1DFF8BC08DFF8A41808600AF054F9E9
:10065C001BE0DFF8B008DFF8941808600AF04CF9DA
:10066C0013E0DFF894080088002807D1DFF8980819
:10067C00DFF8781808600AF03FF906E0DFF88C081C
:10068C00DFF8681808600AF037F90220387084E245
:10069C000AF008F900285CD0DFF8C00A0178491C80
:1006AC0011F07F010170DFF8B81A0078085C0500C2
:1006BC002800C0B21B2809D14120DFF8B8160880E9
:1006CC00308850F002003080002067E22800C0B271
:1006DC002B2803D02800C0B22D280DD1DFF8040838
:1006EC00B0F84001002807D0DFF80C080188C94396
:1006FC000180012038702CE02800C0B20D2825D1D3
:10070C00DFF8F4070088002802D10320387020E0BD
:10071C003088C0F3002080B2002802D10620387047
:10072C0017E031884FF6FF6001403180DFF8340A62
:10073C00DFF8B81708600AF0DFF8DFF82806008841
:10074C00DFF8AC1708800820387002E0DFF8180AD0
:10075C00057022E2C6A0DFF8941708600AF0CCF806
:10076C000020DFF894170880DFF8000A00210170E0
:10077C00002141700021817004203870DFF8E405FD
:10078C000188DFF86C070088091A89B20329C0F0C8
:10079C0097800AF09BF8002800F09280DFF84C87D5
:1007AC00DFF8CC09C8F800000AF0A6F83088C0F3CE
:1007BC00002080B2002809D0DFF8B0090078303072
:1007CC00DFF8AC1508700AF05AF811E0DFF89C0954
:1007DC000078002806D13020DFF8941508700AF054
:1007EC004EF805E02A20DFF8881508700AF047F863
:1007FC000FF28029C8F800900AF07EF83088C0F318
:10080C00002080B2002809D0DFF860094078303031
:10081C00DFF85C1508700AF032F811E0DFF84C09CB
:10082C004078002806D13020DFF8441508700AF013
:10083C0026F805E02A20DFF8381508700AF01FF8B2
:10084C00C8F800900AF058F83088C0F3002080B245
:10085C00002809D0DFF8140980783030DFF8101543
:10086C0008700AF00CF811E0DFF800098078002815
:10087C0006D13020DFF8F81408700AF000F805E013
:10088C002A20DFF8EC14087009F0F9FFC8F8009082
:10089C000AF032F800200400200080B2DFF858166D
:1008AC00098849424900891D884206DAC7A0C8F860
:1008BC0000000AF021F8641CEEE7052038706CE1AA
:1008CC0009F0F0FF002800F0EE80DFF890080178C6
:1008DC00491C11F07F010170DFF884180078085C66
:1008EC0005002800C0B21B2817D104203870DFF88F
:1008FC007C28DFF804160888105C002803D0002040
:10090C0009885054CFE00888002803D00888401E7E
:10091C000880C8E000203870C5E02800C0B22B2841
:10092C0026D1DFF84818DFF8D00502888A5C092A3E
:10093C0005DA02888A5C521C00880A5402E0002204
:10094C0000880A543088C0F3002080B2002806D1F9
:10095C00DFF82008DFF89415086009F0CDFFDFF808
:10096C0004040088DFF888150880042038709AE0A9
:10097C002800C0B22D2826D1DFF8F027DFF8781533
:10098C000888105C002805D00888105C401E098877
:10099C00505402E00920098850543088C0F30020DC
:1009AC0080B2002806D1DFF8CC07DFF840150860CC
:1009BC0009F0A2FFDFF8AC030088DFF834150880DB
:1009CC00042038706FE02800C0B20D2868D1DFF821
:1009DC002885B8F80000022807DAB8F80000401C97
:1009EC00A8F80000042038705DE03088C0F30020C7
:1009FC0080B2002815D0DFF8740701784278120114
:100A0C0052FA81F1807811EB0021DFF8D804A0F8BC
:100A1C004011DFF85007DFF8D414086009F06CFFC0
:100A2C0032E0DFF8C004B0F840010400DFF83C0706
:100A3C00017814F00F0291421FD141782200C2F3C9
:100A4C000312D2B2914218D18078210089B20912D6
:100A5C0011F00F0188420FD1DFF80807DFF88C1472
:100A6C00086009F049FF308850F4807030800BE04A
:100A7C000A0000002D000000FFE7DFF84C07DFF84C
:100A8C006C14086009F038FFDFF8D8020088DFF832
:100A9C00601408800020A8F800000820387002E0DC
:100AAC00DFF8C406057078E0DFF83804B0F84001D0
:100ABC000400DFF8B88614F00F00D0F1090088F8B4
:100ACC0002002000C0F30310D0F1090088F80000E8
:100ADC00200080B2001210F00F00D0F1090088F84D
:100AEC000100DFF80894DFF8E406C9F8000009F00B
:100AFC0003FFDFF8DC06C9F8000009F0FDFEDFF8A3
:100B0C0070A298F8000030308AF8000009F0B7FEA7
:100B1C000FF2981BC9F800B009F0EEFE98F801002E
:100B2C0030308AF8000009F0AAFEC9F800B009F0CC
:100B3C00E3FE98F8020030308AF8000009F09FFEBE
:100B4C00C9F800B009F0D8FE0720387009F0AAFEE9
:100B5C00002817D0DFF804060178491C11F07F013A
:100B6C000170DFF8FC150078085C05002800C0B2A5
:100B7C001B2803D02800C0B20D2800D19CE5DFF85B
:100B8C00E805057009E077480188DFF86403008800
:100B9C00091A89B22F29BFF48FAD0020BDE8F28F5E
:100BAC0001000020FF2903D2FF221100100007E0F2
:100BBC00B1F1807F04D37FF07F421100FF2210003F
:100BCC00DFF828291160C0B270470000080000004F
:100BDC0010B504002000C008FFF7E2FF10BD10B5EF
:100BEC0004002000FFF7F4FF10BD70B504000025D1
:100BFC002000FFF7EDFF0600012000F041F8300067
:100C0C00C0B270BD0200D2B2002A11D10A00D2B219
:100C1C00012A06D15FF08042137853F01003137051
:100C2C001BE05FF08042137813F0EF03137014E0B5
:100C3C000200D2B2012A10D10A00D2B2012A06D186
:100C4C005FF08042137853F00203137005E05FF0FD
:100C5C008042137813F0FD03137070470100C9B282
:100C6C00012906D15FF080410A7852F001020A7026
:100C7C0005E05FF080410A7812F0FE020A707047BE
:100C8C0010B504002000C0B2012808D15FF08040EC
:100C9C00017851F00101017000F02FF805E05FF0D0
:100CAC008040017811F0FE01017010BD2D00000094
:100CBC0001000800C0B2002805D15FF08040007828
:100CCC0010F008000AE00800C0B2012805D15FF05E
:100CDC008040007810F0040000E0002070475FF0C6
:100CEC008040017811F0FB0101707047DFF8C408F7
:100CFC00AA21017055210170704780B572B6FFF7BB
:100D0C00F5FF62B601BD38B504000120FFF7D0FF36
:100D1C00002807D0DFF8A008816851F40031816009
:100D2C00FFF7DDFF4FF47A75200080B26843FFF7C0
:100D3C0056FF0120FFF792FF01210120FFF762FF10
:100D4C00200080B205FB00F52800FFF74EFF31BDF7
:100D5C00784501800CED00E018ED00E0B48009202E
:100D6C00B88009201C0D0010184B01800C47018025
:100D7C00744B0180524901805649018080B5FFF7C0
:100D8C00BCFF01BD70B5040000F090F82000C0B2AB
:100D9C00002858D1DFF820080021016100214161B1
:100DAC00002181610021C1610020DFF8101808606A
:100DBC000020DFF80C1808600020DFF80818086025
:100DCC000020DFF804180860DFF800080088DFF85E
:100DDC000018088011F049F9C820DFF8F8170870DE
:100DEC000020DFF8F4170870002000F091F80020C4
:100DFC00FFF7DEFA0020FFF77DFBDFF8E06700234A
:100E0C0032000021022014F017FD0500280080B2EA
:100E1C0000282FD1DFF8C8070068C0072AD5308812
:100E2C00022807DB01203080002300223100022041
:100E3C0014F0E9FC2B48B0F8E81102291ADB012167
:100E4C00A0F8E81116E0DFF89C0701F0A5F811F006
:100E5C00C9F919F0C3FC19F001FD06F0E9F9DFF846
:100E6C0088070088C0F3402080B2002802D10120FE
:100E7C001AF0CCFE2000C0B215F03CFB2000C0B232
:100E8C0080B215F099FE12F08EFC12F001FB12F0FC
:100E9C000FFD012000F03CF80120FFF789FA70BD2E
:100EAC000000FA0500E100E080E100E0DFF81C073B
:100EBC0003881900DFF834371B681A000B00008810
:100ECC009BB28342F2D10902100080B211EB1021C7
:100EDC00DFF8780A0180704700E400E0BC8009204C
:100EEC000447018074330180E4720300E047018001
:100EFC0044490180754B018042490180908E03006A
:100F0C00F87203000C7303002073030034730300A6
:100F1C00F8B588B004000026200080B2002822D149
:100F2C00DFF8CC76387810F00100002806D039882C
:100F3C004FF6FE700140398009F0B0FC39884FF64D
:100F4C007F7001403980DFF8AC06002101800088F9
:100F5C00DFF8A4160880DFF8740600882038DFF864
:100F6C009C160880F8E0DFF890160888ADF80000B1
:100F7C00DFF88026BDF80000C0F300201388C3F30F
:100F8C00002380B29BB2984221D0BDF80000C0F380
:100F9C00002080B2002806D1BDF8000050F480700B
:100FAC00ADF8000006E0BDF800304FF6FF600340DE
:100FBC00ADF80030DFF814060088DFF840361880F2
:100FCC00DFF82C06038853F00103038009E0DFF8F7
:100FDC00FC050388DFF8240600881B1A9BB21F2B24
:100FEC009ED21088C0F3013080B2002807D1BDF822
:100FFC0000304CF6FF700340ADF8003020E0108854
:10100C00C0F30130BDF80030C3F3013380B29BB2A2
:10101C00984215D0DFF8E8051388514F90F800C0BE
:10102C0007F80C3003785B1C13F07F0303701088F7
:10103C0080B2000BBDF8003060F30D33ADF800301A
:10104C00108880B2800B80B2002806D1BDF8000059
:10105C008004800CADF800007BE0108880B2800B1F
:10106C0080B2BDF800309BB29B0B9BB2984270D003
:10107C001088C0F3C02080B2002829D1DFF8840585
:10108C0003785B1C13F07F03DFF87C753F78BB4261
:10109C005FD003785B1C13F07F030370BDF8003046
:1010AC0013F47F43DFF8A47A0078385C0343ADF87F
:1010BC000030BDF80000DFF854351870108880B28D
:1010CC00800BBDF8002060F38F32ADF8002040E0BB
:1010DC00DFF8300503785B1C13F07F03DFF828750D
:1010EC003F78BB421CD033009BB21E2B18DA03781E
:1010FC005B1C13F07F030370DFF8503A0078185C28
:10110C006B463700BFB23B449870761C108880B297
:10111C00800BBDF8003060F38F33ADF80030D7E7AB
:10112C00002005002800320080B292B290420AD210
:10113C0068462A0092B2104480782A0092B20A447F
:10114C0090706D1CEEE7BDF8000066F30700ADF87B
:10115C000000BDF80000088009B0F0BD714B0180A3
:10116C003C3D0180447703006E4B018010460180AA
:10117C00A09C0300487303003EB4DFF8141ADFF898
:10118C00142ADFF8143A0020146801941C680294A5
:10119C00019CDFF8085AAC4206D10298DFF8244CC7
:1011AC00A04201D1012400E000242000C0B200289C
:1011BC0007D008680090009850F4700000900098D8
:1011CC00086037BC704700005C7303007073030049
:1011DC00A89C030080B5FFF7CFFFDFF82808252176
:1011EC00016001684906FCD50120DFF8681708602A
:1011FC000920DFF8AC1908600120DFF8A819086095
:10120C00DFF8A409AA21016055210160DFF8F80775
:10121C0000684005FAD52320DFF8901908600120FA
:10122C00DFF88C190860DFF88C09AA2101605521C0
:10123C000160DFF8580900684005FAD540F201104A
:10124C00DFF80C17086040F20120DFF8C0180860C6
:10125C000120DFF8AC1708600220DFF8FC160860EC
:10126C004FF40240DFF8F01A08604FF48070DFF89A
:10127C00EC1A086045F23A00DFF8E41A0860002026
:10128C00DFF8081D086001BD1FB56846DFF8D41AE9
:10129C001022FEF74FFFDFF8C00A016841F440014D
:1012AC0051F006010160016851F002010160032256
:1012BC000A21012001F010FC03221221012001F06F
:1012CC000BFC03221321012001F006FC03221A213E
:1012DC00012001F001FC0024200080B204283EDA39
:1012EC0068460021220092B250F82220116700219A
:1012FC00220092B250F8222091600021220092B27A
:10130C0050F8222011610021220092B250F82220C4
:10131C00D1600021220092B250F82220916221006B
:10132C0089B250F82110496851F00201220092B2A2
:10133C0050F822205160210089B250F821104968E0
:10134C0031F00201220092B250F8222051603B2170
:10135C00220092B250F82200C160641CBCE74FF628
:10136C00FF70DFF8641A0860DFF8601A0860DFF8B5
:10137C00601A0860DFF85C1A08600320DFF8581A5E
:10138C0008600220DFF8541A08600220DFF8501AB7
:10139C0008600020DFF84C1A08600020DFF8481ABB
:1013AC0008600020DFF8441A08600020DFF8401ABB
:1013BC0008600020DFF83C1A08605FF0FF305FF037
:1013CC0040210860DFF8301A0860DFF8301A086036
:1013DC00DFF82C1A086000210120FEF7C2FF012063
:1013EC00FEF7A7FFDFF81C0A016851F0010101604C
:1013FC00DFF8140A016851F001010160DFF80C0AF2
:10140C00016851F001010160DFF8040A016851F034
:10141C000101016000206D4908800220DFF8741B77
:10142C0008701FBD69480188491C01805FF0FF30BE
:10143C005FF0402108606E49087810F00100002828
:10144C0023D10888C0F3001080B200281DD0DFF82B
:10145C00441B0878401E08700878002815D102201B
:10146C00087068480178491C11F07F01664A1278AF
:10147C0091420AD00178491C11F07F010170DFF80C
:10148C00CC160078085C61490870584800684FF623
:10149C00FF718842F9D2704710B5DFF85C492068BB
:1014AC002068800701D518F033F92068206820687F
:1014BC00206810BD10B5DFF844492068206820680A
:1014CC002068400701D513F04BFF2068206810BD41
:1014DC0010B5DFF82C4920682068800701D517F07B
:1014EC0098FD206820682068206810BD040000402A
:1014FC002DE9FE4F04000D009DF8080000281ED0B9
:10150C002978200000F084F806006978200000F0AB
:10151C007FF80700A978200000F07AF88046297936
:10152C00200000F075F881466979200000F070F811
:10153C008246A979200000F06BF8834609E02E78EA
:10154C006F7895F8028095F8049095F805A095F8B9
:10155C0006B09DF8040000280FD0404680B20090E1
:10156C004B469BB2524692B2594689B2200000F0CB
:10157C0070F9002801D0B8F101084B469BB25246D5
:10158C0092B2594689B2200000F09AF80100DFF8B7
:10159C00802C02FB01F243469BB24FF4616000FBCE
:1015AC0003223B009BB23C2000FB032212FA86F084
:1015BC00BDE8FE8F08000040A04401806048018017
:1015CC0064480180C0470180C44701801C0D001095
:1015DC00404901806F4B0180794B01802E4901807D
:1015EC00B4800920EC460180544A01800840004038
:1015FC00564901805A490180C04401801A4B018030
:10160C00704B0180734B0180724B018000C0004015
:10161C0002000800C0B20009C0B20A23C9B211F01E
:10162C000F0103FB0011080080B2704710B40A00D0
:10163C0092B2042392FBF3F403FB1422002A08D188
:10164C00080080B2642290FBF2F302FB1300002826
:10165C0008D189B24FF4C87091FBF0F200FB121163
:10166C00002901D1012000E00020C0B210BC70475D
:10167C0070B504000D001600280080B202280BD1B2
:10168C00310089B22000FFF7D1FF002801D01D20C6
:10169C0000E01C2080B212E0280080B204280BD09D
:1016AC00280080B2062807D0280080B2092803D071
:1016BC00280080B20B2801D11E2000E01F2070BD35
:1016CC002DE9F84305000E00170098460024300061
:1016DC00298880B288421AD1B5F802904846390060
:1016EC0080B289B288420CD2320092B2494689B299
:1016FC002800FFF7BDFF14FA80F0040019F101096E
:10170C00ECE7414689B2A888091A0C1944E0B5F8EF
:10171C000290484680B20D280BDA2A88494689B2D5
:10172C002800FFF7A5FF14FA80F0040019F1010955
:10173C00EFE7A888241AB5F8009019F1010948467A
:10174C00310080B289B288420FD2494689B2280052
:10175C00FFF76CFF002802D04FF4B77001E040F2A5
:10176C006D10041919F10109E9E75FF00109484608
:10177C00390080B289B288420CD2320092B249460A
:10178C0089B22800FFF774FF14FA80F0040019F1F5
:10179C000109ECE714FA88F42000BDE8F2832DE986
:1017AC00F04104000D001600280080B2032801DA75
:1017BC000C35761E290089B2491C0D2041430520A9
:1017CC0091FBF0F010FA86F2300080B2042190FB0D
:1017DC00F1F08218521C300080B2642190FBF1F1C0
:1017EC00511A300080B24FF4C87290FBF2F04118DD
:1017FC00072091FBF0F700FB1717380080B2401D53
:10180C00072190FBF1F801FB1808280080B20D2885
:10181C0001DB012200E00022280080B20D2802DB4F
:10182C00B5F10C0100E02900921992B289B22000A6
:10183C00FFF71EFF1FFA88F818FA80F1491E0722DD
:10184C0080B2401A91FBF2F102FB010080B2BDE8BC
:10185C00F0812DE9F04105000E0090461F00069C1A
:10186C00404680B2032803DB404680B20B2801DBE4
:10187C0000203CE0404680B2042805DB404680B2A4
:10188C000A2801DA012032E0404680B2032814D144
:10189C00320092B203212800FFF781FF01003800CB
:1018AC0080B2814207DB380080B288421ED1200012
:1018BC0080B202281ADB012019E0404680B20A28C7
:1018CC0014D1320092B20A212800FFF768FF010000
:1018DC00380080B2884207DB380080B2884205D1DC
:1018EC00200080B2032801DA012000E00020BDE8CE
:1018FC00F081DFF8C4090078C0B23C2821DADFF8A7
:10190C00BC090078C0B23C281BDADFF8B4090078B7
:10191C00C0B2192815DADFF8AC090078C0B2072874
:10192C000FDADFF8A409017820290ADA00780028F8
:10193C0007D0DFF8980901780D2902DA0078002821
:10194C0001D1002000E001207047000054490180C3
:10195C0004C10F400CC10F40A8C10F4038B5002482
:10196C00DFF86C59002028700020DFF86819088017
:10197C000020DFF864190880DFF860090078C006E1
:10198C0001D501202870DFF85809017811F01301F6
:10199C000170017851F001010170FFF7AAFF0028D6
:1019AC0001D1641C01E005200400200080B2032852
:1019BC00F3DB200080B205281DD001202870002008
:1019CC00DFF8F41808700020DFF8F0180870002019
:1019DC00DFF8EC1808700520DFF8E818087009200B
:1019EC00DFF8E41808700520DFF8E01808701920FB
:1019FC00DFF8F01808800020DFF8381C088031BDB3
:101A0C0000C10F40A0C10F4088C00F4030B4DFF8B8
:101A1C00D808DFF8A41809780170DFF8A018097845
:101A2C004170DFF89C1809788170DFF898180978F4
:101A3C00C170DFF8941809780171DFF890180978F3
:101A4C004171DFF8A0180988817102780A23DFF848
:101A5C00281C04780A2594FBF5F412EB041492FB71
:101A6C00F3F203FB12430B7042780A2344780A25E5
:101A7C0094FBF5F412EB041492FBF3F203FB124308
:101A8C004B7082780A2384780A2594FBF5F412EBC8
:101A9C00041492FBF3F203FB12438B70C2780A23FB
:101AAC00C4780A2594FBF5F412EB041492FBF3F2C0
:101ABC0003FB12435B1CCB7002790A2304790A25C1
:101ACC0094FBF5F412EB041492FBF3F203FB1243B8
:101ADC000B7142790A2344790A2594FBF5F412EB35
:101AEC00041492FBF3F203FB12434B7182790A2329
:101AFC0080790A2490FBF4F012EB001092FBF3F2C5
:101B0C0003FB12038B71002030BC704708C10F40DF
:101B1C000178DFF8A42711704178DFF8A027117045
:101B2C008178DFF89C271170C178DFF89827117045
:101B3C000179DFF8942711704179DFF89027117043
:101B4C008179DFF8A027118070470000BC3C018030
:101B5C00DFF8641709780170DFF8601709784170B5
:101B6C00DFF85C1709788170DFF858170978C170B5
:101B7C00DFF8541709780171DFF8501709784171B3
:101B8C00DFF860170988817170470000A8C00F400A
:101B9C0088ED00E040EF00E044EF00E02100111080
:101BAC0084C00F4080C00F408CC00F40A4C00F40B9
:101BBC00A0C00F40ACC00F4070B504000A202178C3
:101BCC0011F00F012278D2B21209D2B200FB02112D
:101BDC003C2957DA617811F00F016278D2B2120900
:101BEC00D2B200FB02113C294CDAA17811F00F01A2
:101BFC00A278D2B21209D2B200FB0211192941DA31
:101C0C00E17811F00F01E278D2B21209D2B200FBE6
:101C1C000211092936DAE17811F00F01E278D2B21B
:101C2C001209D2B200FB021100292BD0217911F03C
:101C3C000F012279D2B21209D2B200FB0211202973
:101C4C0020DA217911F00F012279D2B21209D2B225
:101C5C0000FB0211002915D0617911F00F01627996
:101C6C00D2B21209D2B200FB02110D290ADA617943
:101C7C0011F00F016279D2B21209D2B200FB02103C
:101C8C0000280DD100202070002060700020A07072
:101C9C000820E07001202071012060710020A071EB
:101CAC000425280080B207281DD0DFF8A86A280078
:101CBC0080B2205CC0B200093070307830303070A7
:101CCC0008F0DDFD280080B2205C10F00F003070B1
:101CDC0030783030307008F0D2FD2E20307008F0A3
:101CEC00CEFD6D1CDDE7DFF84469DFF84409E178CF
:101CFC0000EB810050F8040C306008F0FDFDA4A04E
:101D0C00306008F0F9FD0226300000B2002821D422
:101D1C00DFF8405A300080B2205CC0B20009287055
:101D2C0028783030287008F0AAFD300080B2205C92
:101D3C0010F00F00287028783030287008F09FFDC4
:101D4C00300080B2002803D03A20287008F097FDAC
:101D5C00761ED9E770BD0000C4C00F40C8C10F404B
:101D6C0000C00F40C091030038B50400200080B2C1
:101D7C00012804D01ED3032819D014D31AE0DFF89D
:101D8C00B808C178491EC1700500280000F042F85F
:101D9C000020DFF83C150870DFF84005017851F0A1
:101DAC001001017006E0DFF84005050002E0DFF8E5
:101DBC0038050500200080B2002802D02800FFF76B
:101DCC00A7FE31BD110000111840004018800040E2
:101DDC00180009401840094014400040148000408D
:101DEC0014000940144009403C4000403C80004035
:101DFC003C0009403C400940008000400000094084
:101E0C0000400940044000400480004004000940A8
:101E1C0004400940F8B52DED028B88B0040004A8ED
:101E2C00FEF7CBF9002602A8FFF792FE00236A46C4
:101E3C000221042013F000FD01900198002840F0CD
:101E4C009680DFF86078B7F8E801002801D001220D
:101E5C0000E000220023D2B2210004A8FFF748FBC7
:101E6C0001900120060000980199884280F07F8043
:101E7C0001990098091A00910098DFF868188842B7
:101E8C0075D20098DFF8601888426ED3B7F8E80175
:101E9C00002801D0012200E000220023D2B202A9C6
:101EAC0004A8FFF725FB05000198401B00EE100A63
:101EBC00B8EEC00ADDED000AF8EEE00AC0EE808A4A
:101ECC00DFF81C140878C00604D5DFF88C0800680D
:101EDC00009001E0002000900098C003C00B00EEC1
:101EEC00900AF8EE600A0098800303D5BFEE000A52
:101EFC0060EE800A30EEA88A00200090B5EE408A91
:101F0C00F1EE10FA09D5009850F400300090B0EEC4
:101F1C00480AF0EEC00AB0EE608A9FED3B0AB4EEC0
:101F2C00408AF1EE10FA03DB9FED380AB0EE408ADE
:101F3C00BCEEC80A10EE100A002803D0087850F046
:101F4C0010000870009F18EE100AFEF745F90022E9
:101F5C00DFF808382CF0F0FAFEF764F9C01900909D
:101F6C000098DFF8F417086001E00020060030004C
:101F7C00C0B2002805D00023022201A9042013F0CE
:101F8C0042FC08B0BDEC028BF1BD000008ED00E096
:101F9C000D0A0000784B018038B50400DFF8945628
:101FAC00287810F01F0F04D02888FFF7DDFE0020E2
:101FBC002880FFF72BFD2000DFF8BC160822FEF767
:101FCC00A9F8DFF8E006B0F8E801002808D0287876
:101FDC00000605D400F01CF8022801D1022028804C
:101FEC00DFF8EC020078002806D0DFF87407C1692E
:101FFC0051F00041C16105E0DFF86407C16921F0CF
:10200C000041C16131BD00000100004800000048E2
:10201C00F8B5002400250426DFF8B87238880028AB
:10202C0009D0022800F0B580032800F0C4800428F1
:10203C0000F0D080E9E002203880DFF8281708880B
:10204C0000283AD1A8484279042A02DB42790A2AAC
:10205C006DDB42790A2A13D10279192A67DBC2781F
:10206C00062A05D18078042861DB012005005EE09A
:10207C00C27819320079824259DA0120050056E003
:10208C004279032A16D10279192A02DA01200500B5
:10209C004DE0C278062A05D18078042847DA012061
:1020AC00050044E00279C078193082423FDA012001
:1020BC0005003CE00120050039E08B484279032AF9
:1020CC0035DB42790B2A32DA4279032A13D10279B1
:1020DC00192A2CDBC278062A05D18078042826DB45
:1020EC000120040023E0C2781932007982421EDA02
:1020FC00012004001BE042790A2A16D10279192A20
:10210C0002DA0120040012E0C278062A05D1807898
:10211C0003280CDA0120040009E00279C078193098
:10212C00824204DA0120040001E0012004002000B6
:10213C002A00C0B2D2B290422AD00888022827DAEC
:10214C002800C0B200280FD0674A907800280BD026
:10215C0050783A2808DA9078401E90700120088058
:10216C0002200600032038802000C0B200280FD0C7
:10217C005D488278172A0BDA42783A2A08DA827894
:10218C00521C827000200880022006000320388038
:10219C003BE05149DFF8D025138808881B1A9BB205
:1021AC0040F22770834203D30020388010880880C7
:1021BC000020060029E0DFF8B4050188C1F3800196
:1021CC0089B2002905D1018851F004010180042055
:1021DC0038801AE00123DFF88C250021022013F04F
:1021EC002BFB0600300080B204280ED0DFF87C15E3
:1021FC000A884FF6FB7002400A80022038803000BB
:10220C0080B2002801D001200600300080B2F2BD5F
:10221C00805101002DE9FC4F02000420110089B20D
:10222C00002906D10021DFF848351980002108006B
:10223C003FE0DFF83C35198801292AD0DFF8341546
:10224C000C788DF80040DFF830452578DFF82C65E8
:10225C003778DFF82CE59EF80080DFF8289599F8A0
:10226C0000A0DFF824B5CDF804B0DDF804C09CF86C
:10227C0000B08DF800B0DFF814C5DCF800C0DFF852
:10228C0014B7ABF800C0B3F800C01CF1010CA3F8F4
:10229C0000C0DFF8F8140C68DFF8F8160988641A27
:1022AC00A4B241F641718C4203D300211980002164
:1022BC000800C0B2BDE8F68F204002402440024026
:1022CC0028400240304002402C400240384002403E
:1022DC00200D001030490180344901805C400240DF
:1022EC00084002403C400240F446018080B5DFF8D3
:1022FC00A806016851F40061016041F21000DFF89A
:10230C009C1608600120DFF8981608600020DFF8A2
:10231C00941608601120DFF8901608601120DFF881
:10232C008C1608601120DFF8881608601120DFF881
:10233C00841608601120DFF8801608601120DFF881
:10234C007C1608601120DFF8781608601120DFF881
:10235C00741608601120DFF8701608601120DFF881
:10236C006C1608601120DFF8681608601120DFF881
:10237C00641608601120DFF8601608601120DFF881
:10238C005C1608601120DFF8581608601120DFF881
:10239C00541608601120DFF8501608601120DFF881
:1023AC004C1608601120DFF8481608601120DFF881
:1023BC00441608601120DFF8401608601120DFF881
:1023CC003C1608601120DFF8381608601120DFF881
:1023DC00341608601120DFF8301608601120DFF881
:1023EC002C1608601120DFF8281608601120DFF881
:1023FC00241608601120DFF8201608601120DFF881
:10240C001C1608601120DFF8181608601120DFF880
:10241C00141608601120DFF8101608601120DFF880
:10242C000C1608601120DFF8081608601120DFF880
:10243C00041608601120DFF8001608601120DFF880
:10244C00FC1508601120DFF8F81508601120DFF882
:10245C00F41508601120DFF8F01508601120DFF882
:10246C00EC1508601120DFF8E81508601020DFF883
:10247C00E41508600020DFF8E01508600120DFF8A3
:10248C00DC1508600020DFF8D81508600020DFF8A4
:10249C00D41508600120DFF8D01508600020DFF8A3
:1024AC00CC1508600020DFF8C81508600020DFF8A4
:1024BC00C41508608120DFF8C01508600220DFF821
:1024CC00BC1508600220DFF8B81508600420DFF89E
:1024DC00B41508600020DFF8B01508600420DFF8A0
:1024EC00AC1508600020DFF8A81508608020DFF824
:1024FC00A41508600020DFF8A01508600020DFF8A4
:10250C009C1508600720DFF8981508600020DFF89C
:10251C00941508600520DFF8901508600020DFF89E
:10252C008C1508600121002000F00CF8DFF88015F4
:10253C00086001BD02008A4203D200231380921C62
:10254C00F9E770472DE9F84F04000D000026200034
:10255C00C0B2002804D15FF00047DFF858850BE0CB
:10256C002000C0B2012804D15FF01047DFF8488585
:10257C0002E07FF0010057E02800C0B200281ED016
:10258C00002002003B00434517D21A703000C0B245
:10259C00002808D11000C0B2FF2801D0521C0AE05C
:1025AC000120060007E01000C0B2002801D0521E26
:1025BC0001E0002006005B1CE5E7002006005FF050
:1025CC000009CB46BA46C24524D29AF8000081468F
:1025DC0058464946C0B2C9B2884201D0504623E0A1
:1025EC003000C0B2002809D15846C0B2FF2802D032
:1025FC001BF1010B0BE00120060008E05846C0B2AD
:10260C00002802D0BBF1010B01E0002006001AF1FA
:10261C00010AD8E72000C0B2012803D04146380097
:10262C00FFF788FF5FF0FF30BDE8F28FE0470180D5
:10263C001C7003002C490180FC460180010008003D
:10264C00C0B2002805D002280BD006D303280CD02A
:10265C000FE0DFF8680400680CE0DFF86404006841
:10266C0008E0DFF86004006804E0DFF85C04006850
:10267C0000E0FEE770470000EC4601800A00D2B291
:10268C00012A05D1DFF8102313680343136008E017
:10269C000A00D2B2002A04D1DFF8FC22136883436B
:1026AC0013607047743301800F20DFF8201408602A
:1026BC000020DFF81C1408600020DFF818140860F4
:1026CC00704710B504000020DFF800140860617832
:1026DC00207800F00BF8A178207800F021F810BDDC
:1026EC00000000008042F10081F4030010B40A00E5
:1026FC00D2B2012A07D1DFF8D82313680124844011
:10270C00234313600AE00A00D2B2002A06D1DFF894
:10271C00C023136801248440A343136010BC70478A
:10272C0010B40A00D2B2012A07D1DFF8A82313682B
:10273C0001248440234313600AE00A00D2B2002A29
:10274C0006D1DFF89023136801248440A34313605F
:10275C0010BC7047744B0180404002400000E03FC9
:10276C00A04401802E4901801C0D001056490180A7
:10277C001C4B0180709C00908E630190C0070190EF
:10278C003EF800907EE00090801F019008400040D1
:10279C0010B5040001215FF40030FFF76FFF072034
:1027AC00606740F277702067A06510BD10B40329F4
:1027BC0080F09A80002906D1536983619369436242
:1027CC00D369036312E0012906D15369C36193698C
:1027DC008362D369436309E0022906D1536903621A
:1027EC009369C362D369836300E07DE01368012BB6
:1027FC000AD1032905D20124CB005B1C14FA03F384
:10280C0000E00023436009E0032905D20124CB003A
:10281C005B1C14FA03F300E0002383605368012B64
:10282C000AD1032905D20124CB009B1C14FA03F313
:10283C0000E00023436009E0032905D20124CB000A
:10284C009B1C14FA03F300E0002383609368012BB4
:10285C0028D1032905D20124CB00DB1C14FA03F385
:10286C0000E000234360032907D240F2FF340A231F
:10287C0003FB01F314FA03F300E00023C46B34EA06
:10288C000303C363032908D2D468A405A40D0A2347
:10289C0003FB01F314FA03F300E00023C46B23439E
:1028AC00C36309E0032905D20124CB00DB1C14FA15
:1028BC0003F300E0002383601369012B0AD1032981
:1028CC0005D20124CB001B1D14FA03F300E00023F6
:1028DC00836009E0032905D20124CB001B1D14FAE7
:1028EC0003F300E00023436010BC7047002904D1BF
:1028FC0093694362D36903630CE0012904D19369A2
:10290C008362D369436305E0022903D19369C362EF
:10291C00D3698363704770B40024002901D001246B
:10292C0000E00024002A02D04FF4807500E000255E
:10293C00002B02D05FF4803600E000262C43344399
:10294C00446070BC704770B40024002901D001248D
:10295C0000E00024002A02D04FF4807500E000252E
:10296C00002B02D05FF4803600E000262C43344369
:10297C00846070BC704710B4020000231000C0B219
:10298C00400150FA81F4DFF8040810EB840010BC0D
:10299C00704700001E4B0180C4C00F40DCC10F40CB
:1029AC0000C0092008C0092080C1024084C1024037
:1029BC0088C102408CC1024090C1024094C10240C7
:1029CC0098C102409CC10240A0C10240A4C1024077
:1029DC00A8C10240ACC10240B0C10240B4C1024027
:1029EC00B8C10240BCC1024000C2024004C2024055
:1029FC0008C202400CC2024010C2024014C2024083
:102A0C0018C202401CC2024020C2024024C2024032
:102A1C0028C202402CC2024030C2024034C20240E2
:102A2C0038C202403CC2024040C2024044C2024092
:102A3C0048C202404CC2024060C2024064C2024022
:102A4C0068C202406CC2024078C202407CC20240A2
:102A5C0038C1024040C00240F4C0024000C209200C
:102A6C0004C2092008C209200CC2092010C2092086
:102A7C0014C2092018C2092020C2092024C209202E
:102A8C0028C209202CC2092030C2092034C20920D6
:102A9C0038C2092040C2092044C2092048C209207A
:102AAC004CC2092050C2092054C2092058C2092026
:102ABC00180D0010FFFF0F80FFFF0790640C001033
:102ACC00680C00106C0C0010700C001040C10F4012
:102ADC0048C10F404CC10F40F8B504000D00160062
:102AEC0000272900C9B22000C0B2FFF744FF0168DB
:102AFC00C908C900016002683100C9B20A4302600A
:102B0C00F1BD00002DE9F0410220FDF7F3FC002897
:102B1C0000F02783DFF87886B8F80000C0F3402077
:102B2C0080B200281CD0DFF86C06DFF86C16086049
:102B3C0007F0E2FEDFF86406018851F02001018005
:102B4C00B8F800104FF6FF500140A8F80010002014
:102B5C00DFF84C1608700020DFF84816088000E3F8
:102B6C00DFF83C763878192829DA38780A2816DB09
:102B7C00DFF834064088002811D0DFF830060188D1
:102B8C00DFF82C060088091A89B2182907D3DFF858
:102B9C002406DFF80416086007F0AEFEB7E13878BB
:102BAC0012280CDBDFF810060088002807D0DFF8AD
:102BBC000406DFF8E415086007F09EFEA7E13878FC
:102BCC0001282AD0022843D0032800F09080042842
:102BDC0000F0B480052800F0DC800F2800F0F880AD
:102BEC00112800F06181142800F07281192800F07E
:102BFC009A811E2800F0A181642800F0B581AA28D2
:102C0C0000F0D481C82800F0E781BFA0DFF8881558
:102C1C00086007F071FE0120387007F057FE00289D
:102C2C0016D0DFF880050088002807D1DFF88C0566
:102C3C00DFF86415086007F05FFE06E0DFF880053A
:102C4C00DFF85415086007F057FE0220387086E252
:102C5C0007F028FE002849D0DFF868050178491CE8
:102C6C0011F07F010170DFF860150078085C04003A
:102C7C002000C0B21B2817D10020DFF850150870B7
:102C8C00B8F8000050F40070A8F80000DFF80C153C
:102C9C000A884FF6DF7002400A80DFF834050078AE
:102CAC00DFF8001508805CE22000C0B22B2803D0AE
:102CBC002000C0B22D2807D1DFF8E8040188C943F1
:102CCC0001800120387011E02000C0B20D280AD11B
:102CDC00DFF8D0040088002802D10320387005E00A
:102CEC001E20387002E0DFF8EC04047037E2DFF8E5
:102CFC00E804DFF8A414086007F0FEFDDFF8AC046C
:102D0C000188DFF8AC241180DFF89C1400220A73D0
:102D1C000122DFF890341A80DFF8C024938ADFF8A0
:102D2C00C0C4ACF800300023938200220A800088D3
:102D3C00DFF8B01408800420387010E2DFF8A80423
:102D4C00B0F85C00022190FBF1F1DFF8600402881E
:102D5C00DFF890040088121A92B2914218D2DFF870
:102D6C008C04B0F9000000B241F2C121884206DBAC
:102D7C00DFF87C04018851F00101018006E0DFF8E6
:102D8C0070140A884FF6FE7002400A8005203870D5
:102D9C00E5E1DFF818040188DFF848040088091A17
:102DAC00DFF84404B0F85C0089B2814210D20020F4
:102DBC00DFF8041408800120DFF8EC1308731120ED
:102DCC0038700A20DFF82C14087007F058FDC6E1A3
:102DDC0007F068FD002866D0DFF8E8130878401C7F
:102DEC0010F07F000870DFF80C04DFF8DC230978A2
:102DFC00515C017001781B2919D10020DFF8CC132C
:102E0C000870B8F8000050F40070A8F80000DFF863
:102E1C00D0030088DFF8C4138882DFF880130A8897
:102E2C004FF6DF7002400A800CF09AFE99E10178AF
:102E3C002B290CD1DFF86C030188491C0180018817
:102E4C00032901DB012101800A20387087E1017818
:102E5C002D290CD1DFF84C130888401E08800888F7
:102E6C00002801D1022008800A20387077E101780F
:102E7C000D2918D10021DFF840231180DFF824132D
:102E8C000A88032A04DA0988DFF81C23117304E08A
:102E9C000988891EDFF810231173112139700A215A
:102EAC00017007F0ECFC5AE107F010FD00280FD080
:102EBC00BC480088032808DADFF83C03B6490860F0
:102ECC0007F01AFD0020060035001420387046E18A
:102EDC0007F0E8FC002819D0BA480178491C11F019
:102EEC007F010170C349B84A0078105C08700878FB
:102EFC001B280BD10A20087007F0C1FCAE480188D2
:102F0C0051F48041018078E70A00000027E1AA48CB
:102F1C00018851F480410180A4480088B14908809F
:102F2C00192038701BE1A1480188AE480088091AA5
:102F3C0089B22029BFF461AF11E1B048964908600D
:102F4C0007F0DAFC0A20AB49087007F098FC012066
:102F5C00944908800020A249088094480088A1491F
:102F6C000880AA203870FAE0002105200BF02EFE14
:102F7C00A3483F21026861F31F6202609C490A88E2
:102F8C004FF6FF6002400A80002090490870B8F8A4
:102F9C00000050F40070A8F8000080490A884FF631
:102FAC00DF7002400A800CF0DBFDDAE007F08EFCEB
:102FBC00002811D08A480088002805D1914876490C
:102FCC00086007F099FC04E08F487349086007F02B
:102FDC0093FCC8203870C2E007F064FC002800F0B5
:102FEC00BE8078480178491C11F07F01017081493D
:102FFC00754A0078105C087008781B2806D10A20E6
:10300C00087007F03CFC642038701EE008782B2810
:10301C000BD173480188491C01800188022901DB0E
:10302C0000210180AA2038700FE008782D280CD1DF
:10303C006B480188491E0180B0F9001009B20029C3
:10304C0001D501210180AA2038706548008801282B
:10305C0014D002D303285DD036D3002105200BF009
:10306C00B5FD63490A884FF6FF6002400A80644848
:10307C003F21026861F31F62026070E05C4F388888
:10308C00C0F3002080B2002817D1002105200BF0DE
:10309C009DFD52484088C0F3C02080B2002804D067
:1030AC00002105200BF05CFB03E05FF48000574926
:1030BC000860388850F4807038805148302102689C
:1030CC0061F31F6202604AE0494F3888C0F3002068
:1030DC0080B2002817D1002105200BF077FD3F4866
:1030EC004088C0F3C02080B2002804D00021052005
:1030FC000BF036FB03E05FF480004449086038882D
:10310C0050F4807038803E482721026861F31F62BA
:10311C00026024E0364F3888C0F3002080B20028CB
:10312C0017D1002105200BF051FD2C484088C0F32D
:10313C00C02080B2002804D0002105200BF010FB29
:10314C0003E05FF4800031490860388850F48070E7
:10315C0038802B480721026861F31F62026007F078
:10316C009DFBBDE8F08180B50DF08EFD284801680F
:10317C0051F00101016001BD80B50DF0B5FD244891
:10318C00016851F00201016001BD000000C0024065
:10319C005649018084730300E04701806649018031
:1031AC00764B018042490180304601801C0D001095
:1031BC00CC490180245A0300824901809873030092
:1031CC00AC730300714B01803C3D0180754B018059
:1031DC00994B01806E4B0180C073030074330180E6
:1031EC004849018044490180582D0180984A01804A
:1031FC002A4A0180744B0180D4730300E8730300E6
:10320C0074800920A08E0300B08E03003880092042
:10321C0040C10F4080B5FFF747FA00208DF8000041
:10322C0001208DF8010000208DF802006846FFF7A0
:10323C0048FA01208DF800006846FFF742FA01BDFC
:10324C002DE9F34F81B02DED088B86B00020ADF841
:10325C000E00DFF8840D0088C0F3400080B2002817
:10326C0017D0DFF8741D0A884FF6FD7002400A80F3
:10327C000888C0F3002080B2002804D10D20DFF8AC
:10328C00541D087003E00F20DFF8481D087001F092
:10329C000FBCDFF8408D98F80000002800F0A280E9
:1032AC00012800F0A380022800F0C780032800F05A
:1032BC00AA81042800F0AB81052800F0D7810628EC
:1032CC0000F0EA81072800F0B083082800F0B283F0
:1032DC00092800F0EB850A2800F0D5870B2801F0AF
:1032EC0075800E2811D00F281AD0DFF8C00CDFF82B
:1032FC00D41C086007F000FBDFF8B40C0088DFF882
:10330C00B41C08800E2088F80000DFF8A40C01889B
:10331C00DFF8A00C0088091A89B22E29C1F0C683E7
:10332C00DFF8A06CDFF8940C306007F0E5FADFF8FA
:10333C00909C0A2089F8000007F0A1FADFF8787C4D
:10334C0000203880002088F80000BDF840000128DB
:10335C0037D1BDF84000012818D10F98007838807B
:10336C00DFF8641C3A880C20424301EB0200808891
:10337C0001280BD1DFF8A80D0D21DFF8A82D03785B
:10338C00D1540178491C11F07F0101700D2089F88E
:10339C00000007F074FADFF8301C3A880C20424326
:1033AC008858306007F0A8FADFF8740D0D21DFF8AB
:1033BC00742D0378D1540178491C11F07F010170F0
:1033CC000BE0BDF84000022807DBDFF8A00D002160
:1033DC0001800F990088085C38803888092845DA04
:1033EC0001F066BB07F072FA00281DD00D20DFF843
:1033FC00D01B087007F043FADFF8C86BDFF8700DCC
:10340C000068306007F078FADFF8BC1BDFF8A80B17
:10341C0002880C2042438858306007F06DFA002077
:10342C00DFF8501D087003E00120DFF8481D08701C
:10343C00022088F8000001F039BB07F033FA0028AD
:10344C0000F0CA800820ADF80E00DFF82C0D0178D2
:10345C00491C11F07F010170DFF8641BDFF8C42CEC
:10346C000078105C087008781B280BD14120DFF81D
:10347C000C1D0880DFF8600B018851F002010180FF
:10348C0001F016BB08782D282BD1BDF8400002287E
:10349C0017DBDFF8D81C0888401C08800888BDF8AA
:1034AC004020904201D300200880DFF80C0B0F9ACB
:1034BC000988515C0180BDF80E10008881420CD245
:1034CC00D4E7DFF8F40A0188491C01800188BDF8B3
:1034DC000E20914201D300210180002088F80000C9
:1034EC00ABE708782B282FD1BDF84000022819DB58
:1034FC00DFF8781C0A884FF6FF7083180B8092B2A5
:10350C00002A03D1BDF8402080180880DFF8A80AF3
:10351C000F9A0988515C0180BDF80E100088814219
:10352C000ED2A3E7DFF8900A02884FF6FF718B18D2
:10353C00038092B2002A03D1BDF80E2089180180B5
:10354C00002088F8000078E708780D283FD1DFF8D4
:10355C00302C002010800C23DFF85C6ADFF8687ACE
:10356C00308858433844D0F808C0B2F800E038200E
:10357C0000FB0EFE0CEB0E0090F82800DFF8B0CD2F
:10358C009CF800C010EA0C0F18D11088368803FB89
:10359C0006F33B449B885B1E98420BD14120DFF81D
:1035AC00DC1B0880DFF8300A018851F00201018031
:1035BC0001F07EBA1088401C1080CCE70A200870FD
:1035CC0007F05DF9042088F8000001F071BA087862
:1035DC00DFF8601D087030E7DFF8980B00780128E1
:1035EC0002D1002088F80000DFF8DC0DDFF8801B2A
:1035FC000A6803689A4204D009680160002088F8C0
:10360C00000001F053BA07F061F9002825D00D2015
:10361C00DFF8AC19087007F032F9DFF8A869DFF8A9
:10362C00500B0068306007F067F9DFF89C19DFF881
:10363C00880902880C20424301EB02008168DFF804
:10364C00400B0288382042438858306007F054F908
:10365C000020DFF8201B087003E00120DFF8141BAA
:10366C000870052088F8000001F020BA07F01AF95C
:10367C00002800F0C381DFF8000B0178491C11F021
:10368C007F010170DFF83869DFF8981A0078085C60
:10369C00307030781B281DD1BDF84000012803D0B4
:1036AC00BDF80E00012800D1E0E6DFF81009DFF8C4
:1036BC001419086007F020F90A20DFF804190870C3
:1036CC0007F0DDF8002088F800000020DFF8B01AC1
:1036DC00088093E130782D2828D1DFF8A40A0188DE
:1036EC00491C01800C22DFF8D018DFF8DC38068882
:1036FC000F8857431F44BF88BE4201D30026068063
:10370C00098802FB01F203EB020189680288382068
:10371C00424301EB020090F82800DFF8141C0978F2
:10372C000842DAD0032088F800009FE730782B2875
:10373C002FD1DFF84C1A08884FF6FF7213180B8044
:10374C0080B200280BD1DFF88038DFF86C080688CF
:10375C000C20464303EB0600808812180A80DFF821
:10376C006828DFF8540803880C20434302EB03005D
:10377C00826809883820414302EB010090F8280048
:10378C00DFF8AC1B09780842D3D0032088F800007E
:10379C006CE730780D2840F02C813820DFF8E019E8
:1037AC000C22DFF81438DFF82078B3F800C002FBE5
:1037BC000CFCBC44DCF808C0B1F800E000FB0EFEC9
:1037CC00F4449CF830C01CF0070C6446B3F800C0FD
:1037DC0002FB0CFCBC44DCF808C0B1F800E000FBB8
:1037EC000EFEF444BCF830C0CCF3802C1FFA8CFCD9
:1037FC00BCF1000F05D0A4461FFA8CFCBCF1000FE5
:10380C0079D1A4461FFA8CFCBCF1010F12D11B8894
:10381C0002FB03F23A449268098800FB01F0104461
:10382C00406890F90000FCF70FFDDFF8342CC2E97A
:10383C000001D6E0A4461FFA8CFCBCF1020F12D199
:10384C001B8802FB03F23A449268098800FB01F0E2
:10385C0010444068B0F90000FCF7F6FCDFF8002CCF
:10386C00C2E90001BDE0A4461FFA8CFCBCF1030FB9
:10387C0011D11B8802FB03F23A449268098800FBC1
:10388C0001F0104440680068FCF7A6FCDFF8D02B70
:10389C00C2E90001A5E0A4461FFA8CFCBCF1040FA0
:1038AC0011D11B8802FB03F23A449268098800FB91
:1038BC0001F0104440680068FCF7C6FCDFF8A02B50
:1038CC00C2E900018DE0A4461FFA8CFCBCF1000F8C
:1038DC0040F087801B8802FB03F23A449268098807
:1038EC0000FB01F01044406890ED000BDFF8700B0A
:1038FC0080ED000B75E0A4461FFA8CFCBCF1010FA7
:10390C0011D11B8802FB03F23A449268098800FB30
:10391C0001F01044406800782AF03EFFDFF8402B9D
:10392C00C2E900015DE0A4461FFA8CFCBCF1020F59
:10393C0011D11B8802FB03F23A449268098800FB00
:10394C0001F01044406800882AF026FFDFF8102BA5
:10395C00C2E9000145E0A4461FFA8CFCBCF1030F40
:10396C0011D11B8802FB03F23A449268098800FBD0
:10397C0001F0104440680068FCF72EFCDFF8E02AE8
:10398C00C2E900012DE0A4461FFA8CFCBCF1040F27
:10399C0011D11B8802FB03F23A449268098800FBA0
:1039AC0001F01044406800682AF0F6FEDFF8B02AF7
:1039BC00C2E9000115E0A4461FFA8CFCBCF1000F13
:1039CC000FD11B8802FB03F23A449268098800FB72
:1039DC0001F01044406890ED000BDFF8840A80ED94
:1039EC00000B0A20307006F04AFF082088F800000F
:1039FC003CE63078DFF83C19087037E6DFF87407DE
:103A0C000078012802D1032088F80000DFF8B809FB
:103A1C00DFF85C170A6803689A4204D009680160F1
:103A2C00032088F8000001F041B806F04FFF002891
:103A3C0000F0BE840D20DFF88815087006F01FFF1B
:103A4C00DFF82C070068DFF87C15086006F054FFDF
:103A5C00DFF87465DFF8600501880C20414306EB44
:103A6C0001008168DFF8180702883820424301EB17
:103A7C00020090F8307017F00707DFF83C0501885A
:103A8C000C20414306EB01008168DFF8F406028844
:103A9C003820424301EB0200008EC0F3802080B23C
:103AAC00002803D0380080B200287CD1380080B2C6
:103ABC00012813D1DFF8000501880C20414306EBE7
:103ACC0001008168DFF8B80602883820424301EB18
:103ADC000200406890F900008346DCE0380080B2B8
:103AEC00022813D1DFF8D00401880C20414306EBE7
:103AFC0001008168DFF8880602883820424301EB18
:103B0C0002004068B0F900008346C4E0380080B27F
:103B1C00032815D1DFF8A00401880C20414306EBE3
:103B2C0001008168DFF8580602883820424301EB17
:103B3C00020040680068FCF74FFB41EC180BAAE050
:103B4C00380080B2042812D1DFF86C0401880C20F4
:103B5C00414306EB01008168DFF824060288382017
:103B6C00424301EB020040680068834693E0380052
:103B7C0080B2002840F08F80DFF83C0401880C20D4
:103B8C00414306EB01008168DFF8F4050288382018
:103B9C00424301EB0200406890ED000BB0EE408A0E
:103BAC00F0EE608A77E0380080B2012812D1DFF89D
:103BBC00080401880C20414306EB01008168DFF802
:103BCC00C00502883820424301EB020040680078AF
:103BDC00834660E0380080B2022812D1DFF8D803A7
:103BEC0001880C20414306EB01008168DFF8900549
:103BFC0002883820424301EB02004068008883466B
:103C0C0049E0380080B2032815D1DFF8AC030188F5
:103C1C000C20414306EB01008168DFF86405028843
:103C2C003820424301EB020040680068FCF7D4FAEC
:103C3C0041EC180B2FE0380080B2042812D1DFF8C9
:103C4C00780301880C20414306EB01008168DFF802
:103C5C00300502883820424301EB020040680068BE
:103C6C00834618E0380080B2002814D1D24801886D
:103C7C000C20414306EB01008168DFF80405028843
:103C8C003820424301EB0200406890ED000BB0EE8F
:103C9C00408AF0EE608A380080B2002804D03800E8
:103CAC0080B2032840F04681C34801880C20414370
:103CBC0006EB01008168DFF8C80402883820424313
:103CCC0001EB0200008BADF80800BB4801880C200A
:103CDC00414306EB01008168DFF8A4040288382018
:103CEC00424301EB0200C0690088ADF80C0051ECB6
:103CFC00180B002200232AF05DFD03D82B208DF831
:103D0C000A000BE053EC182B0020DFF8B01D2AF052
:103D1C006BFD41EC180B2D208DF80A00BDF80C0042
:103D2C002AF03AFD53EC182B2AF05EFD41EC1B0BEC
:103D3C00BDF808002AF030FD02000B0051EC1B0B03
:103D4C002AF028FE41EC1A0B51EC1A0BDFF8702DFF
:103D5C00DFF8703D2AF02EFD05D89FED9C1BB0EED0
:103D6C0041AAF0EE61AA51EC1A0BFCF75BFA0400C5
:103D7C0020002AF011FD02000B0051EC1A0B2AF066
:103D8C0099FCDFF8442DC2E90001DFF8409D0A20C0
:103D9C00ADF80000BDF800A0874801880C20414315
:103DAC0006EB01008168DFF8D80302883820424313
:103DBC0001EB0200008EC0F38310BAEB000A5046F0
:103DCC0000B2002801D5002082460025B9F1010F70
:103DDC0044D0B4FBF9F0ADF80800B4FBF9F009FBE2
:103DEC001044BDF80800284380B200280CD150467E
:103DFC0080B2002802D0BAF1010A2BE020207049D1
:103E0C00087006F03CFD25E0280080B2002818D18F
:103E1C00694801880C20414306EB01008168D848B1
:103E2C0002883820424301EB0200008EC0F3802050
:103E3C0080B2002805D19DF80A006149087006F08F
:103E4C001EFD01200500BDF8080030305C490870EB
:103E5C0006F015FD0A20B9FBF0F9B7E7280080B28F
:103E6C00002818D1544801880C20414306EB01006E
:103E7C008168C34802883820424301EB0200008E5F
:103E8C00C0F3802080B2002805D19DF80A004C496F
:103E9C00087006F0F4FC14F130004949087006F083
:103EAC00EEFC092088F8000000F002BE46494248AA
:103EBC0002880C20424301EB02008168B048028862
:103ECC003820424301EB0200008EC0F3C200050013
:103EDC00280080B2002800F02F82394F2E20387035
:103EEC0006F0CDFC280080B2002800F02582DFF817
:103EFC00D86BD6E900230020DFF8D41B2AF074FC21
:103F0C00C6E90001D6E900012AF068FE040014F1AC
:103F1C003000387006F0B3FC200080B22AF03CFC74
:103F2C0002000B00D6E900012AF0C4FBC6E900012F
:103F3C006D1ED7E7204801880C20414306EB010099
:103F4C0081688F4802883820424301EB0200008BC5
:103F5C00ADF80800184801880C20414306EB01001D
:103F6C008168874802883820424301EB0200C0690F
:103F7C000088ADF80C00104801880C20414306EB7A
:103F8C00010081687E4802883820424301EB020020
:103F9C00008EC0F3802080B2002826D1BBF1000F28
:103FAC001CD42B208DF80A001FE000BF30770300D3
:103FBC001C0D00104449018042490180C08E030051
:103FCC00744B0180E0470180C06C03000000E0FFEF
:103FDC00FFFFEF41754B0180564901807FEA0B0BC7
:103FEC001BF1010B2D208DF80A00DFF8E80A01887F
:103FFC000C20414306EB010081686148028838209F
:10400C00424301EB0200008EC0F3803080B20028E6
:10401C0004D03D00BDF80870ADF80850380080B2EF
:10402C0004281ED0BDF80C0000FB0BF0BDF80810E6
:10403C00B0FBF1F201FB1201DFF89C2A1180BDF8F4
:10404C000810DFF8982A1180BDF80810B0FBF1F0C9
:10405C0004900498B0F5803F59D34FF6FF7004904C
:10406C0055E058462AF098FBCDE90001BDF80C004C
:10407C002AF092FBDDE900232AF0B6FB41EC180B89
:10408C00BDF808002AF088FB02000B0051EC180B5D
:10409C002AF080FC41EC190B51EC190BDFF8202AAB
:1040AC00DFF8203A2AF086FB0FD89FEDC51BB0EE47
:1040BC00419AF0EE619ABDF808002AF06DFB53ECC2
:1040CC00192B2AF091FB41EC180B51EC190BFCF756
:1040DC00A9F8049004982AF05FFBCDE90001BDF823
:1040EC0008002AF059FBDDE900232AF07DFB0200D1
:1040FC000B0051EC180B2AF0DDFA2AF06FFDDFF8FB
:10410C00D8190880BDF80800DFF8D01908803800ED
:10411C0080B2042808D042F210708346052407E0D0
:10412C00704B01803C3D0180DFF8A00983460A24D6
:10413C00134F5FF00C09DFF89CA9BAF8000009FBDB
:10414C0000F0304481683A883820424301EB020089
:10415C00008EC0F38310201A05002800210080B2C5
:10416C0089B288420ED10220050011E0204B01805B
:10417C00DC470180B94B0180714B018052490180B1
:10418C0046490180280000B2002801D50020050016
:10419C000020ADF80C00BBF1010F4BD00498B0FB24
:1041AC00FBF0ADF8080004980499B1FBFBF10BFB94
:1041BC0011000490BDF80810BDF80C00014389B241
:1041CC0000290CD1280080B2002801D06D1E2DE0F2
:1041DC002020DFF80C19087006F051FB26E0BDF822
:1041EC000C00002817D1BAF8000009FB00F030448D
:1041FC0081683A883820424301EB0200008EC0F3FC
:10420C00802080B2002806D19DF80A00DFF8D01873
:10421C00087006F034FB0120ADF80C00BDF8080066
:10422C003030DFF8BC18087006F029FB0A20BBFB05
:10423C00F0FBB0E7BDF80C00002818D1BAF800006C
:10424C0009FB00F906EB090081683A8838204243E3
:10425C0001EB0200008EC0F3802080B2002806D152
:10426C009DF80A00DFF87818087006F008FB04982F
:10427C003030DFF86C18087006F001FB0A2088F863
:10428C00000000F013BC3820DFF858180C22DFF8BF
:10429C004438DFF854681F8857433744BF68B1F877
:1042AC0000C000FB0CFC67443F8EC7F38317BFB202
:1042BC00002F02D1022005000CE01B8802FB03F248
:1042CC0032449268098800FB01F01044008EC0F360
:1042DC00C2000500280080B200282DD0DFF800684D
:1042EC002E20307006F0CBFADFF8F0070088ADF81E
:1042FC000800DFF8E40700880490280080B200284A
:10430C001AD004990A2041438B46BDF80800BBFB28
:10431C00F0F100FB11B00490BDF80800BBFBF0F00D
:10432C00040014F13000307006F0A9FA6D1EE4E7B9
:10433C008A4B01806E4B01803826DFF8A8775FF03E
:10434C000C09DFF8A4A7DFF88C07008809FB00F044
:10435C0050448068398871430844C06ADFF88C1770
:10436C00086006F0C9FADFF86C07008809FB00F951
:10437C000AEB09008068398806FB01F63044008E90
:10438C00C0F3C02080B200280DD0DFF8640700888D
:10439C00C0F3801080B2002805D12320DFF840172D
:1043AC00087006F06CFA0020DFF84817087003E07C
:1043BC000120DFF8401708700B2088F8000075E327
:1043CC000000E0FFFFFFEF41D047018006F06AFAE2
:1043DC00002800F057835FF0380ADFF80897DFF801
:1043EC00F466DFF8047731880C20414307EB0100B9
:1043FC008068B9F800100AFB01F1084490F830000D
:10440C0010F00700040031880C20414307EB010039
:10441C008068B9F800100AFB01F10844008EC0F363
:10442C00802080B2002803D0200080B2002874D1F4
:10443C00200080B2012815D131880C20414307EBB4
:10444C0001008068B9F800100AFB01F108444068CB
:10445C0090F90000FBF7F8FE41EC180BCBE000BF25
:10446C0020470180200080B2022812D131880C2014
:10447C00414307EB01008068B9F800100AFB01F119
:10448C0008444068B0F90000FBF7DEFE41EC180B65
:10449C00B1E0200080B2032811D131880C204143B7
:1044AC0007EB01008068B9F800100AFB01F1084421
:1044BC0040680068FBF790FE41EC180B9BE0200075
:1044CC0080B2042811D131880C20414307EB010044
:1044DC008068B9F800100AFB01F1084440680068D4
:1044EC00FBF7B2FE41EC180B85E0200080B20028EF
:1044FC0040F0818031880C20414307EB010080683B
:10450C00B9F800100AFB01F10844406890ED000B6B
:10451C00B0EE408AF0EE608A6DE0200080B2012897
:10452C0011D131880C20414307EB01008068B9F8A8
:10453C0000100AFB01F10844406800782AF02CF9BD
:10454C0041EC180B57E0200080B2022811D13188C1
:10455C000C20414307EB01008068B9F800100AFBFE
:10456C0001F10844406800882AF016F941EC180B58
:10457C0041E0200080B2032811D131880C20414346
:10458C0007EB01008068B9F800100AFB01F1084440
:10459C0040680068FBF720FE41EC180B2BE0200074
:1045AC0080B2042811D131880C20414307EB010063
:1045BC008068B9F800100AFB01F1084440680068F3
:1045CC002AF0EAF841EC180B15E0200080B2002824
:1045DC0011D131880C20414307EB01008068B9F8F8
:1045EC0000100AFB01F10844406890ED000BB0EE9E
:1045FC00408AF0EE608ADFF83C0B0178491C11F020
:10460C007F010170DFF8301B0078085CDFF8D014F4
:10461C000870DFF8CC0400781B282CD1DFF81C0BB9
:10462C0090ED000BB0EE408AF0EE608AB9A0DFF896
:10463C00BC14086006F060F931880C2041437858AE
:10464C00DFF8A814086006F057F90A20DFF8901478
:10465C00087006F014F931880C20414307EB010077
:10466C008088012803D1062088F8000029E1032066
:10467C0088F8000025E1DFF8680400780D2824D1C3
:10468C00A4A0DFF86814086006F036F931880C2015
:10469C0041437858DFF85414086006F02DF90A20CD
:1046AC00DFF83C14087006F0EAF831880C2041431E
:1046BC0007EB01008088012803D1062088F8000050
:1046CC00FFE0032088F80000FBE031880C20414318
:1046DC0007EB01008068B9F800100AFB01F10844EF
:1046EC00008EC0F3C02080B2002808D0DFF8000490
:1046FC000088C0F3801080B2002800F0DD80DFF865
:10470C00E00301782B2967D1DFF8341A0988C1F34B
:10471C00002189B200295FD053EC182B31880C2072
:10472C00414307EB01008068B9F800100AFB01F166
:10473C000844D0E9080129F0FFFE41EC180B318840
:10474C000C20414307EB01008068B9F800100AFB0C
:10475C0001F1084490ED040BB0EE409AF0EE609A33
:10476C00200080B2012803D0200080B2022824D17E
:10477C0051EC190B2AF032FAADF8080031880C20F4
:10478C00414307EB01008068B9F800100AFB01F106
:10479C000844008EC0F3802080B2002807D1BDF9F8
:1047AC00080000B2FBF750FD41EC190B05E0BDF819
:1047BC00080029F0F1FF41EC190B51EC190B53ECEB
:1047CC00182B2AF027FA03D2B0EE498AF0EE698A48
:1047DC00072088F8000074E001782D2967D1DFF8F4
:1047EC0060190988C1F3002189B200295FD051EC0E
:1047FC00180B33880C22534307EB03029268B9F869
:10480C0000300AFB03F31A44D2E9082329F052FFC3
:10481C0041EC180B31880C20414307EB01008068F8
:10482C00B9F800100AFB01F1084490ED020BB0EE50
:10483C00409AF0EE609A200080B2012803D020004C
:10484C0080B2022824D151EC190B2AF0C7F9ADF82B
:10485C00080031880C20414307EB01008068B9F84F
:10486C0000100AFB01F10844008EC0F3802080B2D6
:10487C00002807D1BDF9080000B2FBF7E5FC41ECBC
:10488C00190B05E0BDF8080029F086FF41EC190B67
:10489C0051EC180B53EC192B2AF0BCF903D2B0EEE7
:1048AC00498AF0EE698A072088F8000009E0007850
:1048BC00DFF89018087004E089480078DFF8841855
:1048CC0008700C203188414339448968B9F80020BC
:1048DC000AFB02F21144098EC1F3802189B200292E
:1048EC0003D0210089B2002967D1210089B20129A6
:1048FC0012D1318800FB01F038448068B9F80010FF
:10490C000AFB01FA5044466851EC180B2AF066F980
:10491C003070B7E00A0D0000210089B2022910D1D5
:10492C00318800FB01F038448068B9F800100AFBAC
:10493C0001FA5044466851EC180B2AF04FF93080BC
:10494C00A0E0210089B2032910D1318800FB01F0CD
:10495C0038448068B9F800100AFB01FA50444668E4
:10496C0051EC180B2AF070F930608BE0210089B201
:10497C00042910D1318800FB01F038448068B9F863
:10498C0000100AFB01FA5044466851EC180B2AF04F
:10499C0025F9306076E0210089B2002972D1318886
:1049AC0000FB01F038448068B9F800100AFB01FAEA
:1049BC005044406880ED008B64E0210089B20129ED
:1049CC0010D1318800FB01F038448068B9F8001030
:1049DC000AFB01FA5044466851EC180B2AF0FEF819
:1049EC0030704FE0210089B2022910D1318800FBD0
:1049FC0001F038448068B9F800100AFB01FA504401
:104A0C00466851EC180B2AF0E9F830803AE02100A6
:104A1C0089B2032910D1318800FB01F03844806839
:104A2C00B9F800100AFB01FA5044466851EC180B17
:104A3C002AF00AF9306025E0210089B2042910D14E
:104A4C00318800FB01F038448068B9F800100AFB8B
:104A5C0001FA5044466851EC180BFBF7E3FB30604D
:104A6C0010E0210089B200290CD1318800FB01F043
:104A7C0038448068B9F800100AFB01FA50444068C9
:104A8C0080ED008B1B480078012802D1072088F8A4
:104A9C000000DFF8B406DFF8B4160A6803689A421F
:104AAC0004D009680160072088F8000005F0F6FEC4
:104ABC0006B0BDEC088BBDE8F78F00BF0000F0BF5F
:104ACC000100E0FFFFFFEF411847018000CA9A3B4D
:104ADC000000244042490180444901801046018075
:104AEC00744B018046490180C06C0300E047018093
:104AFC0086490180B94B01802DE9F34F81B0DFF875
:104B0C0040663088C0F3400080B2002814D0318851
:104B1C004FF6FD70014031803088C0F3002080B228
:104B2C00002804D1C820DFF82816087003E0D22032
:104B3C00DFF81C160870FBE2DFF8147638780028D2
:104B4C0000F0C580052800F0C2800A2800F05781CB
:104B5C00142800F00A82C92810D0D22819D0DFF806
:104B6C00F405DFF8F415086005F0C6FEDFF8EC0577
:104B7C000088DFF8EC150880C9203870DFF8DC05F8
:104B8C000188DFF8DC050088091A89B22E29C0F0EB
:104B9C00CD82DFF8D0850020A8F80000DFF8C8959A
:104BAC000020A9F80000BDF80800002803D0BDF8CB
:104BBC000800022822DBDFF8B405DFF89C1508603A
:104BCC0005F09AFE0A20DFF8A815087005F057FECC
:104BDC0000203870BDF8080002280ADBDFF89405C5
:104BEC000199B9F80020895C018000880A286DDBE6
:104BFC0019E10020DFF87C15088067E0DFF8749578
:104C0C0001980078A9F80000DFF864A50A208AF85A
:104C1C00000005F034FE0D208AF8000005F02FFE90
:104C2C00B9F80000092807DB4120DFF84C15088093
:104C3C00308850F002003080DFF810050068DFF893
:104C4C001815086005F058FE5FF0740BDFF82CA502
:104C5C00B9F800000BFB00F05AF80000DFF8F8146C
:104C6C00086005F049FE0020A8F80000B9F8000023
:104C7C000BFB00F05044C06E0088B9F800100BFB21
:104C8C0001F15144B8F8002001EB4201B1F84C108D
:104C9C00084219D1B8F80000B9F800100BFB01F16B
:104CAC005144097A89B2884208D34120DFF8C814EC
:104CBC000880308850F00200308005E0B8F8000021
:104CCC00401CA8F80000D1E70520387030E205F050
:104CDC00FDFD002800F08F80387805281BD00D20B2
:104CEC00DFF88C14087005F0CAFDDFF86C64DFF88F
:104CFC005C040068306005F0FFFDDFF88014DFF81D
:104D0C0074040288742042438858306005F0F4FD26
:104D1C000A2038706EE07426DFF85884DFF85C9453
:104D2C00B8F800007043484490F8700010F003008D
:104D3C00012807D1B8F80000704348444068007857
:104D4C00040006E0B8F8000070434844406800884E
:104D5C000400DFF81CA40D208AF8000005F08FFD7C
:104D6C00DFF8E8030068DFF8F013086005F0C4FD15
:104D7C00DFF8F0B3B8F8000070434844BBF80010FB
:104D8C0000EB8100C068009000200500009829000D
:104D9C0089B2405C00280DD0280080B20E2809DAB8
:104DAC000098290089B2405C8AF8000005F067FD84
:104DBC006D1CEBE73D208AF8000005F060FDB8F8AB
:104DCC00000006FB00F609EB0600BBF8001000EB38
:104DDC004100B0F84C00044205D130208AF80000A4
:104DEC0005F04DFD04E031208AF8000005F047FD88
:104DFC00142038709AE13878052800F0B68005F058
:104E0C0051FD002800F0A680CA480178491C11F019
:104E1C007F010170DFF85813C74A0078105C0870E6
:104E2C0008781B2808D14120DFF84C130880308803
:104E3C0050F0020030807BE108782D2823D1BDF89A
:104E4C000800022813DBC8480188491C018001882E
:104E5C00BDF80820914201D300210180C549019A77
:104E6C000088105C088008880A2809DBDBE7C14849
:104E7C000188491C01800188092901DB002101807E
:104E8C0000203870BBE708782B2823D1BDF8080028
:104E9C00022813DBB44801884A1E028089B200291B
:104EAC0003D1BDF80810491E0180B249019A00884F
:104EBC00105C088008880A2809DBB4E7AD48018833
:104ECC004A1E028089B2002901D1082101800020EC
:104EDC00387094E708780D2838D1A24A0020108049
:104EEC007423DFF890C2DFF894E2BCF8000058435A
:104EFC007044C06E0088BCF8008003FB08F8F044D6
:104F0C00B2F8009008EB4908B8F84C8010EA080F8A
:104F1C0015D11088BCF800C003FB0CF373441B7A4A
:104F2C009BB2984207D3412093490880308850F0B7
:104F3C0002003080FCE01088401C1080D0E70A2072
:104F4C00087005F09CFC0520387058E708787D49FE
:104F5C00087054E77C487D490A6803689A4203D07C
:104F6C000968016000203870E0E005F09BFC002827
:104F7C0000F0D2805FF07408DFF8F891DFF8FCA144
:104F8C00B9F8000008FB00F0504490F8700010F0E5
:104F9C000300012808D1B9F8000008FB00F05044C8
:104FAC0040680078040007E0B9F8000008FB00F046
:104FBC0050444068008804005E480178491C11F098
:104FCC007F010170DFF8A8B15B490078085C8BF8B1
:104FDC0000009BF800001B2811D1BDF80800012827
:104FEC003FF421AF61485C49086005F085FC0A205C
:104FFC008BF8000005F043FC002038706FE09BF844
:10500C0000002D2825D157480188491C01800188B2
:10501C00B9F8002008FB02F25244127A92B2914283
:10502C0001D300210180B9F8001008FB01F15144B3
:10503C00C96E0988B9F8002008FB02F252440088B6
:10504C0002EB4000B0F84C201142DCD00520387047
:10505C0045E09BF800002B2824D1424801884A1EC9
:10506C00028089B2002907D1B9F8001008FB01F1C0
:10507C005144097A491E0180B9F8001008FB01F16E
:10508C005144C96E0988B9F8002008FB02F2524459
:10509C00008802EB4000B0F84C201142DDD0052016
:1050AC0038701CE09BF800000D2814D13088C0F338
:1050BC00002080B200280ED0B9F8000008FB00F0E8
:1050CC0050442849098800EB4100B0F84C0044409A
:1050DC000520387003E09BF800001A490870B9F8F5
:1050EC00000008FB00F0504490F8700010F0030032
:1050FC00012808D1B9F8000008FB00F80AEB0800F9
:10510C004068047031E7B9F8000008FB00F80AEBBE
:10511C0008004068048028E70B480C490A680368BB
:10512C009A4203D0096801600520387005F0B6FB7F
:10513C00BDE8F78F714B01803C3D01802047018019
:10514C00564901806E4B0180D0470180DC470180BD
:10515C00754B018030770300E04701801C0D001077
:10516C00444901804649018048490180FC73030091
:10517C00744B018042490180524901807045030003
:10518C002DE9F84F2DED028B86B0DFF88C6D308851
:10519C00C0F3400080B2002820D031884FF6FD705B
:1051AC00014031806420DFF8741D08700020DFF8A6
:1051BC00701D08800020DFF86C1D0880042005F0AD
:1051CC0025FF0020DFF8601D0870DFF8601D0878EF
:1051DC00002801D1C820087000F0F7BFDFF83C5D53
:1051EC0028780F2800F03186102800F04D871728FA
:1051FC0000F0878167281AD0692839D06B2854D0E1
:10520C00972800F01B84C82800F0A980CD2800F056
:10521C00FC80DFF81C0DDFF81C1D086005F06CFB32
:10522C000A20DFF8141D087005F029FB03E005F0D7
:10523C004DFB00281CD00D20DFF8FC1C087005F07D
:10524C001EFBDFF8F06CDFF8F40C0068306005F042
:10525C0053FBDFF8C01DDFF8C80C02880C2042435A
:10526C008858306005F048FB6920287000F0ABBF0F
:10527C00DFF8B87C38786B2852D00220ADF80E00DD
:10528C0005F010FB002859D0DFF88C0D0178491C73
:10529C0011F07F010170DFF8A01CDFF8802D007881
:1052AC00105C087008781B2813D10A20DFF8881CC2
:1052BC00087005F0E4FA4120DFF8641D088030889E
:1052CC0050F0020030800020DFF8601C087000F005
:1052DC007CBF08782D280ED1DFF8440C0188491CBE
:1052EC0001800188BDF80E20914201D3002101807C
:1052FC0067202870C4E708782B280ED1DFF8200C23
:10530C0001884A1E028089B2002903D1BDF80E1013
:10531C00491E018067202870B2E708780D2808D153
:10532C000A20DFF8141C087005F0A9FAC8202870B0
:10533C00A6E70878DFF85C1D0870A1E7DFF8580DC8
:10534C00DFF8F81B0A6803689A4206D03A786B2A91
:10535C0003D0096801606720287000F034BF05F0A5
:10536C00B5FA002823D00D20DFF8CC1B087005F00F
:10537C0086FADFF8C06BDFF8C40B0068306005F00C
:10538C00BBFADFF8901CDFF8980B02880C20424324
:10539C0001EB02008168DFF88C0B02882420424369
:1053AC008858306005F0A8FACD20287027E0DFF887
:1053BC00780B0078012822D10D20DFF87C1B0870B7
:1053CC0005F05DFADFF86C6BDFF8700B006830608D
:1053DC0005F092FADFF83C1CDFF8440B02880C2035
:1053EC00424301EB02008168DFF8380B028824206D
:1053FC0042438858306005F07FFACD202870DFF8E2
:10540C00280B0078002800F0DE86DFF8206B30785F
:10541C006B284ED0DFF8FC1BDFF8040B02880C2045
:10542C00424301EB02008088ADF80E0005F03AFA19
:10543C0000284CD0DFF8E00B0178491C11F07F01FB
:10544C000170DFF8F41ADFF8D42B0078105C0870C8
:10545C0008781B2806D10020DFF8C81A08806420C1
:10546C00287034E008782D280ED1DFF8B80A0188AE
:10547C00491C01800188BDF80E20914201D3002106
:10548C000180C8202870D1E708782B280ED1DFF8CE
:10549C00940A01884A1E028089B2002903D1BDF802
:1054AC000E10491E0180C8202870BFE708780D280F
:1054BC0008D10A20DFF8801A087005F0E0F91720EF
:1054CC002870B3E70878DFF8CC1B0870AEE7DFF87C
:1054DC00C80BDFF8681A0A6803689A4206D032785B
:1054EC006B2A03D009680160C8202870DFF8380ADD
:1054FC000178012901D1172129700078002800F0CA
:10550C006286DFF8246A307801280BD105F0DEF9C9
:10551C00002807D00A20DFF8201A087005F0AFF930
:10552C000020307005F0D2F9002800F0BD85DFF8BE
:10553C00400D0188DFF83C0D0088091A89B2032957
:10554C0003D23078012840F0AF850D20DFF8E81940
:10555C00087005F094F9DFF8E4090068DFF8D41955
:10556C00086005F0C9F90020DFF80C1D0880DFF891
:10557C00086D3088022880F291852427DFF8941A70
:10558C00DFF89C0902880C20424301EB0200806882
:10559C00DFF89019098879430844318800EB410001
:1055AC0090F8200010F00700ADF80800DFF8641A3E
:1055BC00DFF86C0902880C20424301EB0200806882
:1055CC00DFF86019098879430844318800EB410001
:1055DC00008CC0F3802080B2002804D0BDF80800F5
:1055EC00002840F08C80BDF80800012816D1DFF8A7
:1055FC00241ADFF82C0902880C20424301EB02002C
:10560C008068DFF82019098879430844318800EB59
:10561C008100406890F900000490DAE0BDF80800C1
:10562C00022816D1DFF8EC19DFF8F40802880C20F8
:10563C00424301EB02008068DFF8E81809887943DF
:10564C000844318800EB81004068B0F900000490F8
:10565C00BFE0BDF80800032818D1DFF8B819DFF84F
:10566C00C00802880C20424301EB02008068DFF87E
:10567C00B418098879430844318800EB81004068EC
:10568C000068FAF7A9FD41EC180BA2E0BDF8080080
:10569C00042815D1DFF87C19DFF8840802880C2067
:1056AC00424301EB02008068DFF8781809887943DF
:1056BC000844318800EB810040680068049088E061
:1056CC00BDF80800002840F08480DFF84819DFF8A6
:1056DC00500802880C20424301EB02008068DFF87E
:1056EC004418098879430844318800EB81004068EC
:1056FC0090ED000BB0EE408AF0EE608A69E0BDF8E8
:10570C000800012815D1DFF80C19DFF814080288FD
:10571C000C20424301EB02008068DFF8081809886E
:10572C0079430844318800EB81004068007804908C
:10573C004FE0BDF80800022815D1DFF8D818DFF8C3
:10574C00E00702880C20424301EB02008068DFF87E
:10575C00D417098879430844318800EB81004068EC
:10576C000088049035E0BDF80800032818D1DFF854
:10577C00A418DFF8AC0702880C20424301EB0200AE
:10578C008068DFF8A017098879430844318800EB5A
:10579C00810040680068FAF71FFD41EC180B18E017
:1057AC00BDF80800042814D1DFF86818DFF870077A
:1057BC0002880C20424301EB02008068DFF864177A
:1057CC00098879430844318800EB810040680068FF
:1057DC000490BDF80800002804D0BDF80800032888
:1057EC0040F09881DFF82C18DFF8340702880C2081
:1057FC00424301EB02008068DFF8281709887943DF
:10580C000844318800EB410080890400DFF804185B
:10581C00DFF80C0702880C20424301EB0200806881
:10582C00DFF80017098879430844318800EB8100C0
:10583C0080690088ADF80C0051EC180B0022002395
:10584C0028F0B8FF03D82B208DF80A000BE053EC9E
:10585C00182B0020DFF8281A28F0C6FF41EC180B93
:10586C002D208DF80A00BDF80C0028F095FF53ECA4
:10587C00182B28F0B9FF41EC180B200080B228F04F
:10588C008BFF02000B0051EC180B29F083F841EC54
:10589C00180B51EC180BDFF8342BDFF8343B28F0E5
:1058AC0089FF05D89FED991BB0EE418AF0EE618A15
:1058BC0053EC182B0020DFF81C1B29F0F9F900F031
:1058CC000D8153EC182B5FF0FF307FF0004129F075
:1058DC00EFF900F0038151EC180BFAF7A3FC8046AA
:1058EC00404628F059FF02000B0051EC180B28F031
:1058FC00E1FEDFF8E42AC2E90001DFF8E0AA0A20A1
:10590C00ADF80800BDF808B0DFF80817DFF810068E
:10591C0002880C20424301EB02008068DFF8041679
:10592C00098879430844318800EB4100008CC0F3AE
:10593C008310BBEB000B584600B2002801D50020A9
:10594C0083465FF00009BAF1010F49D0B8FBFAF0B9
:10595C000400B8FBFAF00AFB108859EA040080B284
:10596C0000280DD1584680B2002802D0BBF1010BA3
:10597C0032E02020DFF8C015087004F080FF2BE027
:10598C00484680B200281ED1DFF88816DFF8900553
:10599C0002880C20424301EB02008068DFF884157A
:1059AC00098879430844318800EB4100008CC0F32E
:1059BC00802080B2002806D19DF80A00DFF8781507
:1059CC00087004F05CFF0120814614F13000DFF810
:1059DC006815087004F053FF0A20BAFBF0FAB2E71E
:1059EC00484680B200281FD1DFF82816DFF83005B2
:1059FC0002880C20424301EB02008068DFF824157A
:105A0C00098807FB01F73844318800EB4100008C12
:105A1C00C0F3802080B2002806D19DF80A00DFF880
:105A2C001815087004F02BFF18F13000DFF808157A
:105A3C00087004F024FF97202870C6E3DFF8D41513
:105A4C00DFF8DC0402880C20424301EB0200816881
:105A5C00DFF8D00402882420424301EB0200DFF877
:105A6C001818098800EB4100008CC0F3C200814675
:105A7C00484680B2002800F0D582DFF8BC742E2096
:105A8C00387004F0FCFE484680B2002800F0CA8250
:105A9C00DFF84469D6E900230020DFF8441928F028
:105AAC00A3FEC6E90001D6E9000129F097F8ADF88C
:105ABC000800BDF808003030387004F0E0FEBDF886
:105ACC00080028F069FE02000B00D6E9000128F05E
:105ADC00F1FDC6E90001B9F10109D4E753EC182B2B
:105AEC000020DFF8F01829F0E3F807D1DFF8F4080C
:105AFC00DFF84014086004F0FFFE93E2DFF854096D
:105B0C00DFF83014086004F0F7FE8BE20000E0FFD1
:105B1C00FFFFEF41DFF8FC14DFF8040402880C20CF
:105B2C00424301EB02008068DFF8F81309887943DF
:105B3C000844318800EB4100008CC0F3013080B286
:105B4C00002840F0FD81DFF8CC14DFF8D403028884
:105B5C000C20424301EB02008068DFF8C81309886F
